{
	"token ico project/TokenICO.sol": {
		"TokenICO": {
			"abi": [
				{
					"inputs": [],
					"stateMutability": "nonpayable",
					"type": "constructor"
				},
				{
					"inputs": [
						{
							"internalType": "uint256",
							"name": "_tokenAmount",
							"type": "uint256"
						}
					],
					"name": "buyTokens",
					"outputs": [],
					"stateMutability": "payable",
					"type": "function"
				},
				{
					"inputs": [],
					"name": "getTokenDetails",
					"outputs": [
						{
							"internalType": "string",
							"name": "name",
							"type": "string"
						},
						{
							"internalType": "string",
							"name": "symbol",
							"type": "string"
						},
						{
							"internalType": "uint256",
							"name": "balance",
							"type": "uint256"
						},
						{
							"internalType": "uint256",
							"name": "supply",
							"type": "uint256"
						},
						{
							"internalType": "uint256",
							"name": "tokenPrice",
							"type": "uint256"
						}
					],
					"stateMutability": "view",
					"type": "function"
				},
				{
					"inputs": [],
					"name": "owner",
					"outputs": [
						{
							"internalType": "address",
							"name": "",
							"type": "address"
						}
					],
					"stateMutability": "view",
					"type": "function"
				},
				{
					"inputs": [],
					"name": "soldTokens",
					"outputs": [
						{
							"internalType": "uint256",
							"name": "",
							"type": "uint256"
						}
					],
					"stateMutability": "view",
					"type": "function"
				},
				{
					"inputs": [],
					"name": "tokenAddress",
					"outputs": [
						{
							"internalType": "address",
							"name": "",
							"type": "address"
						}
					],
					"stateMutability": "view",
					"type": "function"
				},
				{
					"inputs": [],
					"name": "tokenSalePrice",
					"outputs": [
						{
							"internalType": "uint256",
							"name": "",
							"type": "uint256"
						}
					],
					"stateMutability": "view",
					"type": "function"
				},
				{
					"inputs": [
						{
							"internalType": "address payable",
							"name": "_to",
							"type": "address"
						},
						{
							"internalType": "uint256",
							"name": "_amount",
							"type": "uint256"
						}
					],
					"name": "transferEther",
					"outputs": [],
					"stateMutability": "payable",
					"type": "function"
				},
				{
					"inputs": [
						{
							"internalType": "uint256",
							"name": "_amount",
							"type": "uint256"
						}
					],
					"name": "transferToOwner",
					"outputs": [],
					"stateMutability": "payable",
					"type": "function"
				},
				{
					"inputs": [
						{
							"internalType": "address",
							"name": "_tokenAddress",
							"type": "address"
						}
					],
					"name": "updateToken",
					"outputs": [],
					"stateMutability": "nonpayable",
					"type": "function"
				},
				{
					"inputs": [
						{
							"internalType": "uint256",
							"name": "_tokenSalePrice",
							"type": "uint256"
						}
					],
					"name": "updateTokenPrice",
					"outputs": [],
					"stateMutability": "nonpayable",
					"type": "function"
				},
				{
					"inputs": [],
					"name": "withdrawAllTokens",
					"outputs": [],
					"stateMutability": "nonpayable",
					"type": "function"
				}
			],
			"devdoc": {
				"kind": "dev",
				"methods": {},
				"version": 1
			},
			"evm": {
				"assembly": "    /* \"token ico project/TokenICO.sol\":1115:4896  contract TokenICO {... */\n  mstore(0x40, 0x80)\n    /* \"token ico project/TokenICO.sol\":1706:1757  constructor() {... */\n  callvalue\n  dup1\n  iszero\n  tag_1\n  jumpi\n  0x00\n  dup1\n  revert\ntag_1:\n  pop\n    /* \"token ico project/TokenICO.sol\":1739:1749  msg.sender */\n  caller\n    /* \"token ico project/TokenICO.sol\":1731:1736  owner */\n  0x00\n  dup1\n    /* \"token ico project/TokenICO.sol\":1731:1749  owner = msg.sender */\n  0x0100\n  exp\n  dup2\n  sload\n  dup2\n  0xffffffffffffffffffffffffffffffffffffffff\n  mul\n  not\n  and\n  swap1\n  dup4\n  0xffffffffffffffffffffffffffffffffffffffff\n  and\n  mul\n  or\n  swap1\n  sstore\n  pop\n    /* \"token ico project/TokenICO.sol\":1115:4896  contract TokenICO {... */\n  dataSize(sub_0)\n  dup1\n  dataOffset(sub_0)\n  0x00\n  codecopy\n  0x00\n  return\nstop\n\nsub_0: assembly {\n        /* \"token ico project/TokenICO.sol\":1115:4896  contract TokenICO {... */\n      mstore(0x40, 0x80)\n      jumpi(tag_1, lt(calldatasize, 0x04))\n      shr(0xe0, calldataload(0x00))\n      dup1\n      0x7ad3def2\n      gt\n      tag_13\n      jumpi\n      dup1\n      0x7ad3def2\n      eq\n      tag_7\n      jumpi\n      dup1\n      0x87c1ed12\n      eq\n      tag_8\n      jumpi\n      dup1\n      0x8da5cb5b\n      eq\n      tag_9\n      jumpi\n      dup1\n      0x9d76ea58\n      eq\n      tag_10\n      jumpi\n      dup1\n      0xe86790eb\n      eq\n      tag_11\n      jumpi\n      dup1\n      0xff332ab7\n      eq\n      tag_12\n      jumpi\n      jump(tag_1)\n    tag_13:\n      dup1\n      0x05b1137b\n      eq\n      tag_2\n      jumpi\n      dup1\n      0x280da6fa\n      eq\n      tag_3\n      jumpi\n      dup1\n      0x3610724e\n      eq\n      tag_4\n      jumpi\n      dup1\n      0x5ed9ebfc\n      eq\n      tag_5\n      jumpi\n      dup1\n      0x676c0d77\n      eq\n      tag_6\n      jumpi\n    tag_1:\n      0x00\n      dup1\n      revert\n        /* \"token ico project/TokenICO.sol\":4084:4389  function transferEther(address payable _to, uint256 _amount) external payable {... */\n    tag_2:\n      tag_14\n      0x04\n      dup1\n      calldatasize\n      sub\n      dup2\n      add\n      swap1\n      tag_15\n      swap2\n      swap1\n      tag_16\n      jump\t// in\n    tag_15:\n      tag_17\n      jump\t// in\n    tag_14:\n      stop\n        /* \"token ico project/TokenICO.sol\":4437:4845  function withdrawAllTokens() public onlyOwner {... */\n    tag_3:\n      callvalue\n      dup1\n      iszero\n      tag_18\n      jumpi\n      0x00\n      dup1\n      revert\n    tag_18:\n      pop\n      tag_19\n      tag_20\n      jump\t// in\n    tag_19:\n      stop\n        /* \"token ico project/TokenICO.sol\":2459:3216  function buyTokens(uint256 _tokenAmount) public payable {... */\n    tag_4:\n      tag_21\n      0x04\n      dup1\n      calldatasize\n      sub\n      dup2\n      add\n      swap1\n      tag_22\n      swap2\n      swap1\n      tag_23\n      jump\t// in\n    tag_22:\n      tag_24\n      jump\t// in\n    tag_21:\n      stop\n        /* \"token ico project/TokenICO.sol\":1377:1402  uint256 public soldTokens */\n    tag_5:\n      callvalue\n      dup1\n      iszero\n      tag_25\n      jumpi\n      0x00\n      dup1\n      revert\n    tag_25:\n      pop\n      tag_26\n      tag_27\n      jump\t// in\n    tag_26:\n      mload(0x40)\n      tag_28\n      swap2\n      swap1\n      tag_29\n      jump\t// in\n    tag_28:\n      mload(0x40)\n      dup1\n      swap2\n      sub\n      swap1\n      return\n        /* \"token ico project/TokenICO.sol\":1953:2078  function updateTokenPrice(uint256 _tokenSalePrice) public onlyOwner {... */\n    tag_6:\n      callvalue\n      dup1\n      iszero\n      tag_30\n      jumpi\n      0x00\n      dup1\n      revert\n    tag_30:\n      pop\n      tag_31\n      0x04\n      dup1\n      calldatasize\n      sub\n      dup2\n      add\n      swap1\n      tag_32\n      swap2\n      swap1\n      tag_23\n      jump\t// in\n    tag_32:\n      tag_33\n      jump\t// in\n    tag_31:\n      stop\n        /* \"token ico project/TokenICO.sol\":1798:1906  function updateToken(address _tokenAddress) public onlyOwner {... */\n    tag_7:\n      callvalue\n      dup1\n      iszero\n      tag_34\n      jumpi\n      0x00\n      dup1\n      revert\n    tag_34:\n      pop\n      tag_35\n      0x04\n      dup1\n      calldatasize\n      sub\n      dup2\n      add\n      swap1\n      tag_36\n      swap2\n      swap1\n      tag_37\n      jump\t// in\n    tag_36:\n      tag_38\n      jump\t// in\n    tag_35:\n      stop\n        /* \"token ico project/TokenICO.sol\":3746:4041  function transferToOwner(uint256 _amount) external payable  {... */\n    tag_8:\n      tag_39\n      0x04\n      dup1\n      calldatasize\n      sub\n      dup2\n      add\n      swap1\n      tag_40\n      swap2\n      swap1\n      tag_23\n      jump\t// in\n    tag_40:\n      tag_41\n      jump\t// in\n    tag_39:\n      stop\n        /* \"token ico project/TokenICO.sol\":1184:1204  address public owner */\n    tag_9:\n      callvalue\n      dup1\n      iszero\n      tag_42\n      jumpi\n      0x00\n      dup1\n      revert\n    tag_42:\n      pop\n      tag_43\n      tag_44\n      jump\t// in\n    tag_43:\n      mload(0x40)\n      tag_45\n      swap2\n      swap1\n      tag_46\n      jump\t// in\n    tag_45:\n      mload(0x40)\n      dup1\n      swap2\n      sub\n      swap1\n      return\n        /* \"token ico project/TokenICO.sol\":1257:1284  address public tokenAddress */\n    tag_10:\n      callvalue\n      dup1\n      iszero\n      tag_47\n      jumpi\n      0x00\n      dup1\n      revert\n    tag_47:\n      pop\n      tag_48\n      tag_49\n      jump\t// in\n    tag_48:\n      mload(0x40)\n      tag_50\n      swap2\n      swap1\n      tag_46\n      jump\t// in\n    tag_50:\n      mload(0x40)\n      dup1\n      swap2\n      sub\n      swap1\n      return\n        /* \"token ico project/TokenICO.sol\":1313:1342  uint256 public tokenSalePrice */\n    tag_11:\n      callvalue\n      dup1\n      iszero\n      tag_51\n      jumpi\n      0x00\n      dup1\n      revert\n    tag_51:\n      pop\n      tag_52\n      tag_53\n      jump\t// in\n    tag_52:\n      mload(0x40)\n      tag_54\n      swap2\n      swap1\n      tag_29\n      jump\t// in\n    tag_54:\n      mload(0x40)\n      dup1\n      swap2\n      sub\n      swap1\n      return\n        /* \"token ico project/TokenICO.sol\":3278:3662  function getTokenDetails() public view returns (string memory name, string memory symbol, uint256 balance, uint256 supply, uint256 tokenPrice) {... */\n    tag_12:\n      callvalue\n      dup1\n      iszero\n      tag_55\n      jumpi\n      0x00\n      dup1\n      revert\n    tag_55:\n      pop\n      tag_56\n      tag_57\n      jump\t// in\n    tag_56:\n      mload(0x40)\n      tag_58\n      swap6\n      swap5\n      swap4\n      swap3\n      swap2\n      swap1\n      tag_59\n      jump\t// in\n    tag_58:\n      mload(0x40)\n      dup1\n      swap2\n      sub\n      swap1\n      return\n        /* \"token ico project/TokenICO.sol\":4084:4389  function transferEther(address payable _to, uint256 _amount) external payable {... */\n    tag_17:\n        /* \"token ico project/TokenICO.sol\":4194:4201  _amount */\n      dup1\n        /* \"token ico project/TokenICO.sol\":4181:4190  msg.value */\n      callvalue\n        /* \"token ico project/TokenICO.sol\":4181:4201  msg.value >= _amount */\n      lt\n      iszero\n        /* \"token ico project/TokenICO.sol\":4173:4229  require(msg.value >= _amount, \"Insufficient funds sent\") */\n      tag_61\n      jumpi\n      mload(0x40)\n      0x08c379a000000000000000000000000000000000000000000000000000000000\n      dup2\n      mstore\n      0x04\n      add\n      tag_62\n      swap1\n      tag_63\n      jump\t// in\n    tag_62:\n      mload(0x40)\n      dup1\n      swap2\n      sub\n      swap1\n      revert\n    tag_61:\n        /* \"token ico project/TokenICO.sol\":4289:4301  bool success */\n      0x00\n        /* \"token ico project/TokenICO.sol\":4307:4310  _to */\n      dup3\n        /* \"token ico project/TokenICO.sol\":4307:4315  _to.call */\n      0xffffffffffffffffffffffffffffffffffffffff\n      and\n        /* \"token ico project/TokenICO.sol\":4323:4330  _amount */\n      dup3\n        /* \"token ico project/TokenICO.sol\":4307:4335  _to.call{value: _amount}(\"\") */\n      mload(0x40)\n      tag_64\n      swap1\n      tag_65\n      jump\t// in\n    tag_64:\n      0x00\n      mload(0x40)\n      dup1\n      dup4\n      sub\n      dup2\n      dup6\n      dup8\n      gas\n      call\n      swap3\n      pop\n      pop\n      pop\n      returndatasize\n      dup1\n      0x00\n      dup2\n      eq\n      tag_68\n      jumpi\n      mload(0x40)\n      swap2\n      pop\n      and(add(returndatasize, 0x3f), not(0x1f))\n      dup3\n      add\n      0x40\n      mstore\n      returndatasize\n      dup3\n      mstore\n      returndatasize\n      0x00\n      0x20\n      dup5\n      add\n      returndatacopy\n      jump(tag_67)\n    tag_68:\n      0x60\n      swap2\n      pop\n    tag_67:\n      pop\n        /* \"token ico project/TokenICO.sol\":4288:4335  (bool success, ) = _to.call{value: _amount}(\"\") */\n      pop\n      swap1\n      pop\n        /* \"token ico project/TokenICO.sol\":4354:4361  success */\n      dup1\n        /* \"token ico project/TokenICO.sol\":4346:4381  require(success, \"Transfer failed\") */\n      tag_69\n      jumpi\n      mload(0x40)\n      0x08c379a000000000000000000000000000000000000000000000000000000000\n      dup2\n      mstore\n      0x04\n      add\n      tag_70\n      swap1\n      tag_71\n      jump\t// in\n    tag_70:\n      mload(0x40)\n      dup1\n      swap2\n      sub\n      swap1\n      revert\n    tag_69:\n        /* \"token ico project/TokenICO.sol\":4162:4389  {... */\n      pop\n        /* \"token ico project/TokenICO.sol\":4084:4389  function transferEther(address payable _to, uint256 _amount) external payable {... */\n      pop\n      pop\n      jump\t// out\n        /* \"token ico project/TokenICO.sol\":4437:4845  function withdrawAllTokens() public onlyOwner {... */\n    tag_20:\n        /* \"token ico project/TokenICO.sol\":1520:1525  owner */\n      0x00\n      dup1\n      sload\n      swap1\n      0x0100\n      exp\n      swap1\n      div\n      0xffffffffffffffffffffffffffffffffffffffff\n      and\n        /* \"token ico project/TokenICO.sol\":1506:1525  msg.sender == owner */\n      0xffffffffffffffffffffffffffffffffffffffff\n      and\n        /* \"token ico project/TokenICO.sol\":1506:1516  msg.sender */\n      caller\n        /* \"token ico project/TokenICO.sol\":1506:1525  msg.sender == owner */\n      0xffffffffffffffffffffffffffffffffffffffff\n      and\n      eq\n        /* \"token ico project/TokenICO.sol\":1498:1563  require(msg.sender == owner, \"Only owner can call this function\") */\n      tag_73\n      jumpi\n      mload(0x40)\n      0x08c379a000000000000000000000000000000000000000000000000000000000\n      dup2\n      mstore\n      0x04\n      add\n      tag_74\n      swap1\n      tag_75\n      jump\t// in\n    tag_74:\n      mload(0x40)\n      dup1\n      swap2\n      sub\n      swap1\n      revert\n    tag_73:\n        /* \"token ico project/TokenICO.sol\":4529:4540  ERC20 token */\n      0x00\n        /* \"token ico project/TokenICO.sol\":4549:4561  tokenAddress */\n      0x01\n      0x00\n      swap1\n      sload\n      swap1\n      0x0100\n      exp\n      swap1\n      div\n      0xffffffffffffffffffffffffffffffffffffffff\n      and\n        /* \"token ico project/TokenICO.sol\":4529:4562  ERC20 token = ERC20(tokenAddress) */\n      swap1\n      pop\n        /* \"token ico project/TokenICO.sol\":4613:4628  uint256 balance */\n      0x00\n        /* \"token ico project/TokenICO.sol\":4631:4636  token */\n      dup2\n        /* \"token ico project/TokenICO.sol\":4631:4646  token.balanceOf */\n      0xffffffffffffffffffffffffffffffffffffffff\n      and\n      0x70a08231\n        /* \"token ico project/TokenICO.sol\":4655:4659  this */\n      address\n        /* \"token ico project/TokenICO.sol\":4631:4661  token.balanceOf(address(this)) */\n      mload(0x40)\n      dup3\n      0xffffffff\n      and\n      0xe0\n      shl\n      dup2\n      mstore\n      0x04\n      add\n      tag_77\n      swap2\n      swap1\n      tag_46\n      jump\t// in\n    tag_77:\n      0x20\n      mload(0x40)\n      dup1\n      dup4\n      sub\n      dup2\n      dup7\n      gas\n      staticcall\n      iszero\n      dup1\n      iszero\n      tag_79\n      jumpi\n      returndatasize\n      0x00\n      dup1\n      returndatacopy\n      revert(0x00, returndatasize)\n    tag_79:\n      pop\n      pop\n      pop\n      pop\n      mload(0x40)\n      returndatasize\n      not(0x1f)\n      0x1f\n      dup3\n      add\n      and\n      dup3\n      add\n      dup1\n      0x40\n      mstore\n      pop\n      dup2\n      add\n      swap1\n      tag_80\n      swap2\n      swap1\n      tag_81\n      jump\t// in\n    tag_80:\n        /* \"token ico project/TokenICO.sol\":4613:4661  uint256 balance = token.balanceOf(address(this)) */\n      swap1\n      pop\n        /* \"token ico project/TokenICO.sol\":4737:4738  0 */\n      0x00\n        /* \"token ico project/TokenICO.sol\":4727:4734  balance */\n      dup2\n        /* \"token ico project/TokenICO.sol\":4727:4738  balance > 0 */\n      gt\n        /* \"token ico project/TokenICO.sol\":4719:4764  require(balance > 0, \"No tokens to withdraw\") */\n      tag_82\n      jumpi\n      mload(0x40)\n      0x08c379a000000000000000000000000000000000000000000000000000000000\n      dup2\n      mstore\n      0x04\n      add\n      tag_83\n      swap1\n      tag_84\n      jump\t// in\n    tag_83:\n      mload(0x40)\n      dup1\n      swap2\n      sub\n      swap1\n      revert\n    tag_82:\n        /* \"token ico project/TokenICO.sol\":4785:4790  token */\n      dup2\n        /* \"token ico project/TokenICO.sol\":4785:4799  token.transfer */\n      0xffffffffffffffffffffffffffffffffffffffff\n      and\n      0xa9059cbb\n        /* \"token ico project/TokenICO.sol\":4800:4805  owner */\n      0x00\n      dup1\n      sload\n      swap1\n      0x0100\n      exp\n      swap1\n      div\n      0xffffffffffffffffffffffffffffffffffffffff\n      and\n        /* \"token ico project/TokenICO.sol\":4807:4814  balance */\n      dup4\n        /* \"token ico project/TokenICO.sol\":4785:4815  token.transfer(owner, balance) */\n      mload(0x40)\n      dup4\n      0xffffffff\n      and\n      0xe0\n      shl\n      dup2\n      mstore\n      0x04\n      add\n      tag_85\n      swap3\n      swap2\n      swap1\n      tag_86\n      jump\t// in\n    tag_85:\n      0x20\n      mload(0x40)\n      dup1\n      dup4\n      sub\n      dup2\n      0x00\n      dup8\n      gas\n      call\n      iszero\n      dup1\n      iszero\n      tag_88\n      jumpi\n      returndatasize\n      0x00\n      dup1\n      returndatacopy\n      revert(0x00, returndatasize)\n    tag_88:\n      pop\n      pop\n      pop\n      pop\n      mload(0x40)\n      returndatasize\n      not(0x1f)\n      0x1f\n      dup3\n      add\n      and\n      dup3\n      add\n      dup1\n      0x40\n      mstore\n      pop\n      dup2\n      add\n      swap1\n      tag_89\n      swap2\n      swap1\n      tag_90\n      jump\t// in\n    tag_89:\n        /* \"token ico project/TokenICO.sol\":4777:4837  require(token.transfer(owner, balance), \"Withdrawal failed\") */\n      tag_91\n      jumpi\n      mload(0x40)\n      0x08c379a000000000000000000000000000000000000000000000000000000000\n      dup2\n      mstore\n      0x04\n      add\n      tag_92\n      swap1\n      tag_93\n      jump\t// in\n    tag_92:\n      mload(0x40)\n      dup1\n      swap2\n      sub\n      swap1\n      revert\n    tag_91:\n        /* \"token ico project/TokenICO.sol\":4483:4845  {... */\n      pop\n      pop\n        /* \"token ico project/TokenICO.sol\":4437:4845  function withdrawAllTokens() public onlyOwner {... */\n      jump\t// out\n        /* \"token ico project/TokenICO.sol\":2459:3216  function buyTokens(uint256 _tokenAmount) public payable {... */\n    tag_24:\n        /* \"token ico project/TokenICO.sol\":2599:2642  multiplyToken(_tokenAmount, tokenSalePrice) */\n      tag_95\n        /* \"token ico project/TokenICO.sol\":2613:2625  _tokenAmount */\n      dup2\n        /* \"token ico project/TokenICO.sol\":2627:2641  tokenSalePrice */\n      sload(0x02)\n        /* \"token ico project/TokenICO.sol\":2599:2612  multiplyToken */\n      tag_96\n        /* \"token ico project/TokenICO.sol\":2599:2642  multiplyToken(_tokenAmount, tokenSalePrice) */\n      jump\t// in\n    tag_95:\n        /* \"token ico project/TokenICO.sol\":2586:2595  msg.value */\n      callvalue\n        /* \"token ico project/TokenICO.sol\":2586:2642  msg.value == multiplyToken(_tokenAmount, tokenSalePrice) */\n      eq\n        /* \"token ico project/TokenICO.sol\":2578:2697  require(msg.value == multiplyToken(_tokenAmount, tokenSalePrice), \"Insufficient Ether Provided for the token purchase\") */\n      tag_97\n      jumpi\n      mload(0x40)\n      0x08c379a000000000000000000000000000000000000000000000000000000000\n      dup2\n      mstore\n      0x04\n      add\n      tag_98\n      swap1\n      tag_99\n      jump\t// in\n    tag_98:\n      mload(0x40)\n      dup1\n      swap2\n      sub\n      swap1\n      revert\n    tag_97:\n        /* \"token ico project/TokenICO.sol\":2745:2756  ERC20 token */\n      0x00\n        /* \"token ico project/TokenICO.sol\":2765:2777  tokenAddress */\n      0x01\n      0x00\n      swap1\n      sload\n      swap1\n      0x0100\n      exp\n      swap1\n      div\n      0xffffffffffffffffffffffffffffffffffffffff\n      and\n        /* \"token ico project/TokenICO.sol\":2745:2778  ERC20 token = ERC20(tokenAddress) */\n      swap1\n      pop\n        /* \"token ico project/TokenICO.sol\":2867:2872  token */\n      dup1\n        /* \"token ico project/TokenICO.sol\":2867:2882  token.balanceOf */\n      0xffffffffffffffffffffffffffffffffffffffff\n      and\n      0x70a08231\n        /* \"token ico project/TokenICO.sol\":2891:2895  this */\n      address\n        /* \"token ico project/TokenICO.sol\":2867:2897  token.balanceOf(address(this)) */\n      mload(0x40)\n      dup3\n      0xffffffff\n      and\n      0xe0\n      shl\n      dup2\n      mstore\n      0x04\n      add\n      tag_100\n      swap2\n      swap1\n      tag_46\n      jump\t// in\n    tag_100:\n      0x20\n      mload(0x40)\n      dup1\n      dup4\n      sub\n      dup2\n      dup7\n      gas\n      staticcall\n      iszero\n      dup1\n      iszero\n      tag_102\n      jumpi\n      returndatasize\n      0x00\n      dup1\n      returndatacopy\n      revert(0x00, returndatasize)\n    tag_102:\n      pop\n      pop\n      pop\n      pop\n      mload(0x40)\n      returndatasize\n      not(0x1f)\n      0x1f\n      dup3\n      add\n      and\n      dup3\n      add\n      dup1\n      0x40\n      mstore\n      pop\n      dup2\n      add\n      swap1\n      tag_103\n      swap2\n      swap1\n      tag_81\n      jump\t// in\n    tag_103:\n        /* \"token ico project/TokenICO.sol\":2851:2863  _tokenAmount */\n      dup3\n        /* \"token ico project/TokenICO.sol\":2851:2897  _tokenAmount <= token.balanceOf(address(this)) */\n      gt\n      iszero\n        /* \"token ico project/TokenICO.sol\":2843:2932  require(_tokenAmount <= token.balanceOf(address(this)), \"Not enough token left for sale\") */\n      tag_104\n      jumpi\n      mload(0x40)\n      0x08c379a000000000000000000000000000000000000000000000000000000000\n      dup2\n      mstore\n      0x04\n      add\n      tag_105\n      swap1\n      tag_106\n      jump\t// in\n    tag_105:\n      mload(0x40)\n      dup1\n      swap2\n      sub\n      swap1\n      revert\n    tag_104:\n        /* \"token ico project/TokenICO.sol\":2998:3003  token */\n      dup1\n        /* \"token ico project/TokenICO.sol\":2998:3012  token.transfer */\n      0xffffffffffffffffffffffffffffffffffffffff\n      and\n      0xa9059cbb\n        /* \"token ico project/TokenICO.sol\":3013:3023  msg.sender */\n      caller\n        /* \"token ico project/TokenICO.sol\":3040:3044  1e18 */\n      0x0de0b6b3a7640000\n        /* \"token ico project/TokenICO.sol\":3025:3037  _tokenAmount */\n      dup6\n        /* \"token ico project/TokenICO.sol\":3025:3044  _tokenAmount * 1e18 */\n      tag_107\n      swap2\n      swap1\n      tag_108\n      jump\t// in\n    tag_107:\n        /* \"token ico project/TokenICO.sol\":2998:3045  token.transfer(msg.sender, _tokenAmount * 1e18) */\n      mload(0x40)\n      dup4\n      0xffffffff\n      and\n      0xe0\n      shl\n      dup2\n      mstore\n      0x04\n      add\n      tag_109\n      swap3\n      swap2\n      swap1\n      tag_86\n      jump\t// in\n    tag_109:\n      0x20\n      mload(0x40)\n      dup1\n      dup4\n      sub\n      dup2\n      0x00\n      dup8\n      gas\n      call\n      iszero\n      dup1\n      iszero\n      tag_111\n      jumpi\n      returndatasize\n      0x00\n      dup1\n      returndatacopy\n      revert(0x00, returndatasize)\n    tag_111:\n      pop\n      pop\n      pop\n      pop\n      mload(0x40)\n      returndatasize\n      not(0x1f)\n      0x1f\n      dup3\n      add\n      and\n      dup3\n      add\n      dup1\n      0x40\n      mstore\n      pop\n      dup2\n      add\n      swap1\n      tag_112\n      swap2\n      swap1\n      tag_90\n      jump\t// in\n    tag_112:\n        /* \"token ico project/TokenICO.sol\":2990:3046  require(token.transfer(msg.sender, _tokenAmount * 1e18)) */\n      tag_113\n      jumpi\n      0x00\n      dup1\n      revert\n    tag_113:\n        /* \"token ico project/TokenICO.sol\":3108:3113  owner */\n      0x00\n      dup1\n      sload\n      swap1\n      0x0100\n      exp\n      swap1\n      div\n      0xffffffffffffffffffffffffffffffffffffffff\n      and\n        /* \"token ico project/TokenICO.sol\":3100:3123  payable(owner).transfer */\n      0xffffffffffffffffffffffffffffffffffffffff\n      and\n        /* \"token ico project/TokenICO.sol\":3100:3134  payable(owner).transfer(msg.value) */\n      0x08fc\n        /* \"token ico project/TokenICO.sol\":3124:3133  msg.value */\n      callvalue\n        /* \"token ico project/TokenICO.sol\":3100:3134  payable(owner).transfer(msg.value) */\n      swap1\n      dup2\n      iszero\n      mul\n      swap1\n      mload(0x40)\n      0x00\n      mload(0x40)\n      dup1\n      dup4\n      sub\n      dup2\n      dup6\n      dup9\n      dup9\n      call\n      swap4\n      pop\n      pop\n      pop\n      pop\n      iszero\n      dup1\n      iszero\n      tag_115\n      jumpi\n      returndatasize\n      0x00\n      dup1\n      returndatacopy\n      revert(0x00, returndatasize)\n    tag_115:\n      pop\n        /* \"token ico project/TokenICO.sol\":3196:3208  _tokenAmount */\n      dup2\n        /* \"token ico project/TokenICO.sol\":3182:3192  soldTokens */\n      0x03\n      0x00\n        /* \"token ico project/TokenICO.sol\":3182:3208  soldTokens += _tokenAmount */\n      dup3\n      dup3\n      sload\n      tag_116\n      swap2\n      swap1\n      tag_117\n      jump\t// in\n    tag_116:\n      swap3\n      pop\n      pop\n      dup2\n      swap1\n      sstore\n      pop\n        /* \"token ico project/TokenICO.sol\":2515:3216  {... */\n      pop\n        /* \"token ico project/TokenICO.sol\":2459:3216  function buyTokens(uint256 _tokenAmount) public payable {... */\n      pop\n      jump\t// out\n        /* \"token ico project/TokenICO.sol\":1377:1402  uint256 public soldTokens */\n    tag_27:\n      sload(0x03)\n      dup2\n      jump\t// out\n        /* \"token ico project/TokenICO.sol\":1953:2078  function updateTokenPrice(uint256 _tokenSalePrice) public onlyOwner {... */\n    tag_33:\n        /* \"token ico project/TokenICO.sol\":1520:1525  owner */\n      0x00\n      dup1\n      sload\n      swap1\n      0x0100\n      exp\n      swap1\n      div\n      0xffffffffffffffffffffffffffffffffffffffff\n      and\n        /* \"token ico project/TokenICO.sol\":1506:1525  msg.sender == owner */\n      0xffffffffffffffffffffffffffffffffffffffff\n      and\n        /* \"token ico project/TokenICO.sol\":1506:1516  msg.sender */\n      caller\n        /* \"token ico project/TokenICO.sol\":1506:1525  msg.sender == owner */\n      0xffffffffffffffffffffffffffffffffffffffff\n      and\n      eq\n        /* \"token ico project/TokenICO.sol\":1498:1563  require(msg.sender == owner, \"Only owner can call this function\") */\n      tag_119\n      jumpi\n      mload(0x40)\n      0x08c379a000000000000000000000000000000000000000000000000000000000\n      dup2\n      mstore\n      0x04\n      add\n      tag_120\n      swap1\n      tag_75\n      jump\t// in\n    tag_120:\n      mload(0x40)\n      dup1\n      swap2\n      sub\n      swap1\n      revert\n    tag_119:\n        /* \"token ico project/TokenICO.sol\":2049:2064  _tokenSalePrice */\n      dup1\n        /* \"token ico project/TokenICO.sol\":2032:2046  tokenSalePrice */\n      0x02\n        /* \"token ico project/TokenICO.sol\":2032:2064  tokenSalePrice = _tokenSalePrice */\n      dup2\n      swap1\n      sstore\n      pop\n        /* \"token ico project/TokenICO.sol\":1953:2078  function updateTokenPrice(uint256 _tokenSalePrice) public onlyOwner {... */\n      pop\n      jump\t// out\n        /* \"token ico project/TokenICO.sol\":1798:1906  function updateToken(address _tokenAddress) public onlyOwner {... */\n    tag_38:\n        /* \"token ico project/TokenICO.sol\":1520:1525  owner */\n      0x00\n      dup1\n      sload\n      swap1\n      0x0100\n      exp\n      swap1\n      div\n      0xffffffffffffffffffffffffffffffffffffffff\n      and\n        /* \"token ico project/TokenICO.sol\":1506:1525  msg.sender == owner */\n      0xffffffffffffffffffffffffffffffffffffffff\n      and\n        /* \"token ico project/TokenICO.sol\":1506:1516  msg.sender */\n      caller\n        /* \"token ico project/TokenICO.sol\":1506:1525  msg.sender == owner */\n      0xffffffffffffffffffffffffffffffffffffffff\n      and\n      eq\n        /* \"token ico project/TokenICO.sol\":1498:1563  require(msg.sender == owner, \"Only owner can call this function\") */\n      tag_123\n      jumpi\n      mload(0x40)\n      0x08c379a000000000000000000000000000000000000000000000000000000000\n      dup2\n      mstore\n      0x04\n      add\n      tag_124\n      swap1\n      tag_75\n      jump\t// in\n    tag_124:\n      mload(0x40)\n      dup1\n      swap2\n      sub\n      swap1\n      revert\n    tag_123:\n        /* \"token ico project/TokenICO.sol\":1885:1898  _tokenAddress */\n      dup1\n        /* \"token ico project/TokenICO.sol\":1870:1882  tokenAddress */\n      0x01\n      0x00\n        /* \"token ico project/TokenICO.sol\":1870:1898  tokenAddress = _tokenAddress */\n      0x0100\n      exp\n      dup2\n      sload\n      dup2\n      0xffffffffffffffffffffffffffffffffffffffff\n      mul\n      not\n      and\n      swap1\n      dup4\n      0xffffffffffffffffffffffffffffffffffffffff\n      and\n      mul\n      or\n      swap1\n      sstore\n      pop\n        /* \"token ico project/TokenICO.sol\":1798:1906  function updateToken(address _tokenAddress) public onlyOwner {... */\n      pop\n      jump\t// out\n        /* \"token ico project/TokenICO.sol\":3746:4041  function transferToOwner(uint256 _amount) external payable  {... */\n    tag_41:\n        /* \"token ico project/TokenICO.sol\":3838:3839  0 */\n      0x00\n        /* \"token ico project/TokenICO.sol\":3825:3834  msg.value */\n      callvalue\n        /* \"token ico project/TokenICO.sol\":3825:3839  msg.value >= 0 */\n      lt\n      iszero\n        /* \"token ico project/TokenICO.sol\":3817:3867  require(msg.value >= 0, \"Insufficient funds sent\") */\n      tag_127\n      jumpi\n      mload(0x40)\n      0x08c379a000000000000000000000000000000000000000000000000000000000\n      dup2\n      mstore\n      0x04\n      add\n      tag_128\n      swap1\n      tag_63\n      jump\t// in\n    tag_128:\n      mload(0x40)\n      dup1\n      swap2\n      sub\n      swap1\n      revert\n    tag_127:\n        /* \"token ico project/TokenICO.sol\":3930:3942  bool success */\n      0x00\n        /* \"token ico project/TokenICO.sol\":3956:3961  owner */\n      dup1\n      0x00\n      swap1\n      sload\n      swap1\n      0x0100\n      exp\n      swap1\n      div\n      0xffffffffffffffffffffffffffffffffffffffff\n      and\n        /* \"token ico project/TokenICO.sol\":3948:3967  payable(owner).call */\n      0xffffffffffffffffffffffffffffffffffffffff\n      and\n        /* \"token ico project/TokenICO.sol\":3975:3982  _amount */\n      dup3\n        /* \"token ico project/TokenICO.sol\":3948:3987  payable(owner).call{value: _amount}(\"\") */\n      mload(0x40)\n      tag_129\n      swap1\n      tag_65\n      jump\t// in\n    tag_129:\n      0x00\n      mload(0x40)\n      dup1\n      dup4\n      sub\n      dup2\n      dup6\n      dup8\n      gas\n      call\n      swap3\n      pop\n      pop\n      pop\n      returndatasize\n      dup1\n      0x00\n      dup2\n      eq\n      tag_132\n      jumpi\n      mload(0x40)\n      swap2\n      pop\n      and(add(returndatasize, 0x3f), not(0x1f))\n      dup3\n      add\n      0x40\n      mstore\n      returndatasize\n      dup3\n      mstore\n      returndatasize\n      0x00\n      0x20\n      dup5\n      add\n      returndatacopy\n      jump(tag_131)\n    tag_132:\n      0x60\n      swap2\n      pop\n    tag_131:\n      pop\n        /* \"token ico project/TokenICO.sol\":3929:3987  (bool success, ) = payable(owner).call{value: _amount}(\"\") */\n      pop\n      swap1\n      pop\n        /* \"token ico project/TokenICO.sol\":4006:4013  success */\n      dup1\n        /* \"token ico project/TokenICO.sol\":3998:4033  require(success, \"Transfer failed\") */\n      tag_133\n      jumpi\n      mload(0x40)\n      0x08c379a000000000000000000000000000000000000000000000000000000000\n      dup2\n      mstore\n      0x04\n      add\n      tag_134\n      swap1\n      tag_71\n      jump\t// in\n    tag_134:\n      mload(0x40)\n      dup1\n      swap2\n      sub\n      swap1\n      revert\n    tag_133:\n        /* \"token ico project/TokenICO.sol\":3806:4041  {... */\n      pop\n        /* \"token ico project/TokenICO.sol\":3746:4041  function transferToOwner(uint256 _amount) external payable  {... */\n      pop\n      jump\t// out\n        /* \"token ico project/TokenICO.sol\":1184:1204  address public owner */\n    tag_44:\n      0x00\n      dup1\n      sload\n      swap1\n      0x0100\n      exp\n      swap1\n      div\n      0xffffffffffffffffffffffffffffffffffffffff\n      and\n      dup2\n      jump\t// out\n        /* \"token ico project/TokenICO.sol\":1257:1284  address public tokenAddress */\n    tag_49:\n      0x01\n      0x00\n      swap1\n      sload\n      swap1\n      0x0100\n      exp\n      swap1\n      div\n      0xffffffffffffffffffffffffffffffffffffffff\n      and\n      dup2\n      jump\t// out\n        /* \"token ico project/TokenICO.sol\":1313:1342  uint256 public tokenSalePrice */\n    tag_53:\n      sload(0x02)\n      dup2\n      jump\t// out\n        /* \"token ico project/TokenICO.sol\":3278:3662  function getTokenDetails() public view returns (string memory name, string memory symbol, uint256 balance, uint256 supply, uint256 tokenPrice) {... */\n    tag_57:\n        /* \"token ico project/TokenICO.sol\":3326:3344  string memory name */\n      0x60\n        /* \"token ico project/TokenICO.sol\":3346:3366  string memory symbol */\n      dup1\n        /* \"token ico project/TokenICO.sol\":3368:3383  uint256 balance */\n      0x00\n        /* \"token ico project/TokenICO.sol\":3385:3399  uint256 supply */\n      dup1\n        /* \"token ico project/TokenICO.sol\":3401:3419  uint256 tokenPrice */\n      0x00\n        /* \"token ico project/TokenICO.sol\":3467:3478  ERC20 token */\n      dup1\n        /* \"token ico project/TokenICO.sol\":3487:3499  tokenAddress */\n      0x01\n      0x00\n      swap1\n      sload\n      swap1\n      0x0100\n      exp\n      swap1\n      div\n      0xffffffffffffffffffffffffffffffffffffffff\n      and\n        /* \"token ico project/TokenICO.sol\":3467:3500  ERC20 token = ERC20(tokenAddress) */\n      swap1\n      pop\n        /* \"token ico project/TokenICO.sol\":3556:3561  token */\n      dup1\n        /* \"token ico project/TokenICO.sol\":3556:3566  token.name */\n      0xffffffffffffffffffffffffffffffffffffffff\n      and\n      0x06fdde03\n        /* \"token ico project/TokenICO.sol\":3556:3568  token.name() */\n      mload(0x40)\n      dup2\n      0xffffffff\n      and\n      0xe0\n      shl\n      dup2\n      mstore\n      0x04\n      add\n      0x00\n      mload(0x40)\n      dup1\n      dup4\n      sub\n      dup2\n      dup7\n      gas\n      staticcall\n      iszero\n      dup1\n      iszero\n      tag_137\n      jumpi\n      returndatasize\n      0x00\n      dup1\n      returndatacopy\n      revert(0x00, returndatasize)\n    tag_137:\n      pop\n      pop\n      pop\n      pop\n      mload(0x40)\n      returndatasize\n      0x00\n      dup3\n      returndatacopy\n      returndatasize\n      not(0x1f)\n      0x1f\n      dup3\n      add\n      and\n      dup3\n      add\n      dup1\n      0x40\n      mstore\n      pop\n      dup2\n      add\n      swap1\n      tag_138\n      swap2\n      swap1\n      tag_139\n      jump\t// in\n    tag_138:\n        /* \"token ico project/TokenICO.sol\":3570:3575  token */\n      dup2\n        /* \"token ico project/TokenICO.sol\":3570:3582  token.symbol */\n      0xffffffffffffffffffffffffffffffffffffffff\n      and\n      0x95d89b41\n        /* \"token ico project/TokenICO.sol\":3570:3584  token.symbol() */\n      mload(0x40)\n      dup2\n      0xffffffff\n      and\n      0xe0\n      shl\n      dup2\n      mstore\n      0x04\n      add\n      0x00\n      mload(0x40)\n      dup1\n      dup4\n      sub\n      dup2\n      dup7\n      gas\n      staticcall\n      iszero\n      dup1\n      iszero\n      tag_141\n      jumpi\n      returndatasize\n      0x00\n      dup1\n      returndatacopy\n      revert(0x00, returndatasize)\n    tag_141:\n      pop\n      pop\n      pop\n      pop\n      mload(0x40)\n      returndatasize\n      0x00\n      dup3\n      returndatacopy\n      returndatasize\n      not(0x1f)\n      0x1f\n      dup3\n      add\n      and\n      dup3\n      add\n      dup1\n      0x40\n      mstore\n      pop\n      dup2\n      add\n      swap1\n      tag_142\n      swap2\n      swap1\n      tag_139\n      jump\t// in\n    tag_142:\n        /* \"token ico project/TokenICO.sol\":3586:3591  token */\n      dup3\n        /* \"token ico project/TokenICO.sol\":3586:3601  token.balanceOf */\n      0xffffffffffffffffffffffffffffffffffffffff\n      and\n      0x70a08231\n        /* \"token ico project/TokenICO.sol\":3610:3614  this */\n      address\n        /* \"token ico project/TokenICO.sol\":3586:3616  token.balanceOf(address(this)) */\n      mload(0x40)\n      dup3\n      0xffffffff\n      and\n      0xe0\n      shl\n      dup2\n      mstore\n      0x04\n      add\n      tag_143\n      swap2\n      swap1\n      tag_46\n      jump\t// in\n    tag_143:\n      0x20\n      mload(0x40)\n      dup1\n      dup4\n      sub\n      dup2\n      dup7\n      gas\n      staticcall\n      iszero\n      dup1\n      iszero\n      tag_145\n      jumpi\n      returndatasize\n      0x00\n      dup1\n      returndatacopy\n      revert(0x00, returndatasize)\n    tag_145:\n      pop\n      pop\n      pop\n      pop\n      mload(0x40)\n      returndatasize\n      not(0x1f)\n      0x1f\n      dup3\n      add\n      and\n      dup3\n      add\n      dup1\n      0x40\n      mstore\n      pop\n      dup2\n      add\n      swap1\n      tag_146\n      swap2\n      swap1\n      tag_81\n      jump\t// in\n    tag_146:\n        /* \"token ico project/TokenICO.sol\":3618:3623  token */\n      dup4\n        /* \"token ico project/TokenICO.sol\":3618:3635  token.totalSupply */\n      0xffffffffffffffffffffffffffffffffffffffff\n      and\n      0x18160ddd\n        /* \"token ico project/TokenICO.sol\":3618:3637  token.totalSupply() */\n      mload(0x40)\n      dup2\n      0xffffffff\n      and\n      0xe0\n      shl\n      dup2\n      mstore\n      0x04\n      add\n      0x20\n      mload(0x40)\n      dup1\n      dup4\n      sub\n      dup2\n      dup7\n      gas\n      staticcall\n      iszero\n      dup1\n      iszero\n      tag_148\n      jumpi\n      returndatasize\n      0x00\n      dup1\n      returndatacopy\n      revert(0x00, returndatasize)\n    tag_148:\n      pop\n      pop\n      pop\n      pop\n      mload(0x40)\n      returndatasize\n      not(0x1f)\n      0x1f\n      dup3\n      add\n      and\n      dup3\n      add\n      dup1\n      0x40\n      mstore\n      pop\n      dup2\n      add\n      swap1\n      tag_149\n      swap2\n      swap1\n      tag_81\n      jump\t// in\n    tag_149:\n        /* \"token ico project/TokenICO.sol\":3639:3653  tokenSalePrice */\n      sload(0x02)\n        /* \"token ico project/TokenICO.sol\":3548:3654  return (token.name(), token.symbol(), token.balanceOf(address(this)), token.totalSupply(), tokenSalePrice) */\n      swap6\n      pop\n      swap6\n      pop\n      swap6\n      pop\n      swap6\n      pop\n      swap6\n      pop\n      pop\n        /* \"token ico project/TokenICO.sol\":3278:3662  function getTokenDetails() public view returns (string memory name, string memory symbol, uint256 balance, uint256 supply, uint256 tokenPrice) {... */\n      swap1\n      swap2\n      swap3\n      swap4\n      swap5\n      jump\t// out\n        /* \"token ico project/TokenICO.sol\":2122:2415  function multiplyToken(uint256 x, uint256 y) internal pure returns (uint256 z) {... */\n    tag_96:\n        /* \"token ico project/TokenICO.sol\":2190:2199  uint256 z */\n      0x00\n        /* \"token ico project/TokenICO.sol\":2354:2355  0 */\n      dup1\n        /* \"token ico project/TokenICO.sol\":2349:2350  y */\n      dup3\n        /* \"token ico project/TokenICO.sol\":2349:2355  y == 0 */\n      eq\n        /* \"token ico project/TokenICO.sol\":2349:2379  y == 0 || (z = x * y) / y == x */\n      dup1\n      tag_151\n      jumpi\n      pop\n        /* \"token ico project/TokenICO.sol\":2378:2379  x */\n      dup3\n        /* \"token ico project/TokenICO.sol\":2373:2374  y */\n      dup3\n        /* \"token ico project/TokenICO.sol\":2368:2369  y */\n      dup4\n        /* \"token ico project/TokenICO.sol\":2364:2365  x */\n      dup6\n        /* \"token ico project/TokenICO.sol\":2364:2369  x * y */\n      tag_152\n      swap2\n      swap1\n      tag_108\n      jump\t// in\n    tag_152:\n        /* \"token ico project/TokenICO.sol\":2360:2369  z = x * y */\n      swap3\n      pop\n      dup3\n        /* \"token ico project/TokenICO.sol\":2359:2374  (z = x * y) / y */\n      tag_153\n      swap2\n      swap1\n      tag_154\n      jump\t// in\n    tag_153:\n        /* \"token ico project/TokenICO.sol\":2359:2379  (z = x * y) / y == x */\n      eq\n        /* \"token ico project/TokenICO.sol\":2349:2379  y == 0 || (z = x * y) / y == x */\n    tag_151:\n        /* \"token ico project/TokenICO.sol\":2341:2407  require(y == 0 || (z = x * y) / y == x, \"Multiplication overflow\") */\n      tag_155\n      jumpi\n      mload(0x40)\n      0x08c379a000000000000000000000000000000000000000000000000000000000\n      dup2\n      mstore\n      0x04\n      add\n      tag_156\n      swap1\n      tag_157\n      jump\t// in\n    tag_156:\n      mload(0x40)\n      dup1\n      swap2\n      sub\n      swap1\n      revert\n    tag_155:\n        /* \"token ico project/TokenICO.sol\":2122:2415  function multiplyToken(uint256 x, uint256 y) internal pure returns (uint256 z) {... */\n      swap3\n      swap2\n      pop\n      pop\n      jump\t// out\n        /* \"#utility.yul\":7:82   */\n    tag_158:\n        /* \"#utility.yul\":40:46   */\n      0x00\n        /* \"#utility.yul\":73:75   */\n      0x40\n        /* \"#utility.yul\":67:76   */\n      mload\n        /* \"#utility.yul\":57:76   */\n      swap1\n      pop\n        /* \"#utility.yul\":7:82   */\n      swap1\n      jump\t// out\n        /* \"#utility.yul\":88:205   */\n    tag_159:\n        /* \"#utility.yul\":197:198   */\n      0x00\n        /* \"#utility.yul\":194:195   */\n      dup1\n        /* \"#utility.yul\":187:199   */\n      revert\n        /* \"#utility.yul\":211:328   */\n    tag_160:\n        /* \"#utility.yul\":320:321   */\n      0x00\n        /* \"#utility.yul\":317:318   */\n      dup1\n        /* \"#utility.yul\":310:322   */\n      revert\n        /* \"#utility.yul\":334:460   */\n    tag_161:\n        /* \"#utility.yul\":371:378   */\n      0x00\n        /* \"#utility.yul\":411:453   */\n      0xffffffffffffffffffffffffffffffffffffffff\n        /* \"#utility.yul\":404:409   */\n      dup3\n        /* \"#utility.yul\":400:454   */\n      and\n        /* \"#utility.yul\":389:454   */\n      swap1\n      pop\n        /* \"#utility.yul\":334:460   */\n      swap2\n      swap1\n      pop\n      jump\t// out\n        /* \"#utility.yul\":466:570   */\n    tag_162:\n        /* \"#utility.yul\":511:518   */\n      0x00\n        /* \"#utility.yul\":540:564   */\n      tag_217\n        /* \"#utility.yul\":558:563   */\n      dup3\n        /* \"#utility.yul\":540:564   */\n      tag_161\n      jump\t// in\n    tag_217:\n        /* \"#utility.yul\":529:564   */\n      swap1\n      pop\n        /* \"#utility.yul\":466:570   */\n      swap2\n      swap1\n      pop\n      jump\t// out\n        /* \"#utility.yul\":576:714   */\n    tag_163:\n        /* \"#utility.yul\":657:689   */\n      tag_219\n        /* \"#utility.yul\":683:688   */\n      dup2\n        /* \"#utility.yul\":657:689   */\n      tag_162\n      jump\t// in\n    tag_219:\n        /* \"#utility.yul\":650:655   */\n      dup2\n        /* \"#utility.yul\":647:690   */\n      eq\n        /* \"#utility.yul\":637:708   */\n      tag_220\n      jumpi\n        /* \"#utility.yul\":704:705   */\n      0x00\n        /* \"#utility.yul\":701:702   */\n      dup1\n        /* \"#utility.yul\":694:706   */\n      revert\n        /* \"#utility.yul\":637:708   */\n    tag_220:\n        /* \"#utility.yul\":576:714   */\n      pop\n      jump\t// out\n        /* \"#utility.yul\":720:875   */\n    tag_164:\n        /* \"#utility.yul\":774:779   */\n      0x00\n        /* \"#utility.yul\":812:818   */\n      dup2\n        /* \"#utility.yul\":799:819   */\n      calldataload\n        /* \"#utility.yul\":790:819   */\n      swap1\n      pop\n        /* \"#utility.yul\":828:869   */\n      tag_222\n        /* \"#utility.yul\":863:868   */\n      dup2\n        /* \"#utility.yul\":828:869   */\n      tag_163\n      jump\t// in\n    tag_222:\n        /* \"#utility.yul\":720:875   */\n      swap3\n      swap2\n      pop\n      pop\n      jump\t// out\n        /* \"#utility.yul\":881:958   */\n    tag_165:\n        /* \"#utility.yul\":918:925   */\n      0x00\n        /* \"#utility.yul\":947:952   */\n      dup2\n        /* \"#utility.yul\":936:952   */\n      swap1\n      pop\n        /* \"#utility.yul\":881:958   */\n      swap2\n      swap1\n      pop\n      jump\t// out\n        /* \"#utility.yul\":964:1086   */\n    tag_166:\n        /* \"#utility.yul\":1037:1061   */\n      tag_225\n        /* \"#utility.yul\":1055:1060   */\n      dup2\n        /* \"#utility.yul\":1037:1061   */\n      tag_165\n      jump\t// in\n    tag_225:\n        /* \"#utility.yul\":1030:1035   */\n      dup2\n        /* \"#utility.yul\":1027:1062   */\n      eq\n        /* \"#utility.yul\":1017:1080   */\n      tag_226\n      jumpi\n        /* \"#utility.yul\":1076:1077   */\n      0x00\n        /* \"#utility.yul\":1073:1074   */\n      dup1\n        /* \"#utility.yul\":1066:1078   */\n      revert\n        /* \"#utility.yul\":1017:1080   */\n    tag_226:\n        /* \"#utility.yul\":964:1086   */\n      pop\n      jump\t// out\n        /* \"#utility.yul\":1092:1231   */\n    tag_167:\n        /* \"#utility.yul\":1138:1143   */\n      0x00\n        /* \"#utility.yul\":1176:1182   */\n      dup2\n        /* \"#utility.yul\":1163:1183   */\n      calldataload\n        /* \"#utility.yul\":1154:1183   */\n      swap1\n      pop\n        /* \"#utility.yul\":1192:1225   */\n      tag_228\n        /* \"#utility.yul\":1219:1224   */\n      dup2\n        /* \"#utility.yul\":1192:1225   */\n      tag_166\n      jump\t// in\n    tag_228:\n        /* \"#utility.yul\":1092:1231   */\n      swap3\n      swap2\n      pop\n      pop\n      jump\t// out\n        /* \"#utility.yul\":1237:1727   */\n    tag_16:\n        /* \"#utility.yul\":1313:1319   */\n      0x00\n        /* \"#utility.yul\":1321:1327   */\n      dup1\n        /* \"#utility.yul\":1370:1372   */\n      0x40\n        /* \"#utility.yul\":1358:1367   */\n      dup4\n        /* \"#utility.yul\":1349:1356   */\n      dup6\n        /* \"#utility.yul\":1345:1368   */\n      sub\n        /* \"#utility.yul\":1341:1373   */\n      slt\n        /* \"#utility.yul\":1338:1457   */\n      iszero\n      tag_230\n      jumpi\n        /* \"#utility.yul\":1376:1455   */\n      tag_231\n      tag_159\n      jump\t// in\n    tag_231:\n        /* \"#utility.yul\":1338:1457   */\n    tag_230:\n        /* \"#utility.yul\":1496:1497   */\n      0x00\n        /* \"#utility.yul\":1521:1582   */\n      tag_232\n        /* \"#utility.yul\":1574:1581   */\n      dup6\n        /* \"#utility.yul\":1565:1571   */\n      dup3\n        /* \"#utility.yul\":1554:1563   */\n      dup7\n        /* \"#utility.yul\":1550:1572   */\n      add\n        /* \"#utility.yul\":1521:1582   */\n      tag_164\n      jump\t// in\n    tag_232:\n        /* \"#utility.yul\":1511:1582   */\n      swap3\n      pop\n        /* \"#utility.yul\":1467:1592   */\n      pop\n        /* \"#utility.yul\":1631:1633   */\n      0x20\n        /* \"#utility.yul\":1657:1710   */\n      tag_233\n        /* \"#utility.yul\":1702:1709   */\n      dup6\n        /* \"#utility.yul\":1693:1699   */\n      dup3\n        /* \"#utility.yul\":1682:1691   */\n      dup7\n        /* \"#utility.yul\":1678:1700   */\n      add\n        /* \"#utility.yul\":1657:1710   */\n      tag_167\n      jump\t// in\n    tag_233:\n        /* \"#utility.yul\":1647:1710   */\n      swap2\n      pop\n        /* \"#utility.yul\":1602:1720   */\n      pop\n        /* \"#utility.yul\":1237:1727   */\n      swap3\n      pop\n      swap3\n      swap1\n      pop\n      jump\t// out\n        /* \"#utility.yul\":1733:2062   */\n    tag_23:\n        /* \"#utility.yul\":1792:1798   */\n      0x00\n        /* \"#utility.yul\":1841:1843   */\n      0x20\n        /* \"#utility.yul\":1829:1838   */\n      dup3\n        /* \"#utility.yul\":1820:1827   */\n      dup5\n        /* \"#utility.yul\":1816:1839   */\n      sub\n        /* \"#utility.yul\":1812:1844   */\n      slt\n        /* \"#utility.yul\":1809:1928   */\n      iszero\n      tag_235\n      jumpi\n        /* \"#utility.yul\":1847:1926   */\n      tag_236\n      tag_159\n      jump\t// in\n    tag_236:\n        /* \"#utility.yul\":1809:1928   */\n    tag_235:\n        /* \"#utility.yul\":1967:1968   */\n      0x00\n        /* \"#utility.yul\":1992:2045   */\n      tag_237\n        /* \"#utility.yul\":2037:2044   */\n      dup5\n        /* \"#utility.yul\":2028:2034   */\n      dup3\n        /* \"#utility.yul\":2017:2026   */\n      dup6\n        /* \"#utility.yul\":2013:2035   */\n      add\n        /* \"#utility.yul\":1992:2045   */\n      tag_167\n      jump\t// in\n    tag_237:\n        /* \"#utility.yul\":1982:2045   */\n      swap2\n      pop\n        /* \"#utility.yul\":1938:2055   */\n      pop\n        /* \"#utility.yul\":1733:2062   */\n      swap3\n      swap2\n      pop\n      pop\n      jump\t// out\n        /* \"#utility.yul\":2068:2186   */\n    tag_168:\n        /* \"#utility.yul\":2155:2179   */\n      tag_239\n        /* \"#utility.yul\":2173:2178   */\n      dup2\n        /* \"#utility.yul\":2155:2179   */\n      tag_165\n      jump\t// in\n    tag_239:\n        /* \"#utility.yul\":2150:2153   */\n      dup3\n        /* \"#utility.yul\":2143:2180   */\n      mstore\n        /* \"#utility.yul\":2068:2186   */\n      pop\n      pop\n      jump\t// out\n        /* \"#utility.yul\":2192:2414   */\n    tag_29:\n        /* \"#utility.yul\":2285:2289   */\n      0x00\n        /* \"#utility.yul\":2323:2325   */\n      0x20\n        /* \"#utility.yul\":2312:2321   */\n      dup3\n        /* \"#utility.yul\":2308:2326   */\n      add\n        /* \"#utility.yul\":2300:2326   */\n      swap1\n      pop\n        /* \"#utility.yul\":2336:2407   */\n      tag_241\n        /* \"#utility.yul\":2404:2405   */\n      0x00\n        /* \"#utility.yul\":2393:2402   */\n      dup4\n        /* \"#utility.yul\":2389:2406   */\n      add\n        /* \"#utility.yul\":2380:2386   */\n      dup5\n        /* \"#utility.yul\":2336:2407   */\n      tag_168\n      jump\t// in\n    tag_241:\n        /* \"#utility.yul\":2192:2414   */\n      swap3\n      swap2\n      pop\n      pop\n      jump\t// out\n        /* \"#utility.yul\":2420:2516   */\n    tag_169:\n        /* \"#utility.yul\":2457:2464   */\n      0x00\n        /* \"#utility.yul\":2486:2510   */\n      tag_243\n        /* \"#utility.yul\":2504:2509   */\n      dup3\n        /* \"#utility.yul\":2486:2510   */\n      tag_161\n      jump\t// in\n    tag_243:\n        /* \"#utility.yul\":2475:2510   */\n      swap1\n      pop\n        /* \"#utility.yul\":2420:2516   */\n      swap2\n      swap1\n      pop\n      jump\t// out\n        /* \"#utility.yul\":2522:2644   */\n    tag_170:\n        /* \"#utility.yul\":2595:2619   */\n      tag_245\n        /* \"#utility.yul\":2613:2618   */\n      dup2\n        /* \"#utility.yul\":2595:2619   */\n      tag_169\n      jump\t// in\n    tag_245:\n        /* \"#utility.yul\":2588:2593   */\n      dup2\n        /* \"#utility.yul\":2585:2620   */\n      eq\n        /* \"#utility.yul\":2575:2638   */\n      tag_246\n      jumpi\n        /* \"#utility.yul\":2634:2635   */\n      0x00\n        /* \"#utility.yul\":2631:2632   */\n      dup1\n        /* \"#utility.yul\":2624:2636   */\n      revert\n        /* \"#utility.yul\":2575:2638   */\n    tag_246:\n        /* \"#utility.yul\":2522:2644   */\n      pop\n      jump\t// out\n        /* \"#utility.yul\":2650:2789   */\n    tag_171:\n        /* \"#utility.yul\":2696:2701   */\n      0x00\n        /* \"#utility.yul\":2734:2740   */\n      dup2\n        /* \"#utility.yul\":2721:2741   */\n      calldataload\n        /* \"#utility.yul\":2712:2741   */\n      swap1\n      pop\n        /* \"#utility.yul\":2750:2783   */\n      tag_248\n        /* \"#utility.yul\":2777:2782   */\n      dup2\n        /* \"#utility.yul\":2750:2783   */\n      tag_170\n      jump\t// in\n    tag_248:\n        /* \"#utility.yul\":2650:2789   */\n      swap3\n      swap2\n      pop\n      pop\n      jump\t// out\n        /* \"#utility.yul\":2795:3124   */\n    tag_37:\n        /* \"#utility.yul\":2854:2860   */\n      0x00\n        /* \"#utility.yul\":2903:2905   */\n      0x20\n        /* \"#utility.yul\":2891:2900   */\n      dup3\n        /* \"#utility.yul\":2882:2889   */\n      dup5\n        /* \"#utility.yul\":2878:2901   */\n      sub\n        /* \"#utility.yul\":2874:2906   */\n      slt\n        /* \"#utility.yul\":2871:2990   */\n      iszero\n      tag_250\n      jumpi\n        /* \"#utility.yul\":2909:2988   */\n      tag_251\n      tag_159\n      jump\t// in\n    tag_251:\n        /* \"#utility.yul\":2871:2990   */\n    tag_250:\n        /* \"#utility.yul\":3029:3030   */\n      0x00\n        /* \"#utility.yul\":3054:3107   */\n      tag_252\n        /* \"#utility.yul\":3099:3106   */\n      dup5\n        /* \"#utility.yul\":3090:3096   */\n      dup3\n        /* \"#utility.yul\":3079:3088   */\n      dup6\n        /* \"#utility.yul\":3075:3097   */\n      add\n        /* \"#utility.yul\":3054:3107   */\n      tag_171\n      jump\t// in\n    tag_252:\n        /* \"#utility.yul\":3044:3107   */\n      swap2\n      pop\n        /* \"#utility.yul\":3000:3117   */\n      pop\n        /* \"#utility.yul\":2795:3124   */\n      swap3\n      swap2\n      pop\n      pop\n      jump\t// out\n        /* \"#utility.yul\":3130:3248   */\n    tag_172:\n        /* \"#utility.yul\":3217:3241   */\n      tag_254\n        /* \"#utility.yul\":3235:3240   */\n      dup2\n        /* \"#utility.yul\":3217:3241   */\n      tag_169\n      jump\t// in\n    tag_254:\n        /* \"#utility.yul\":3212:3215   */\n      dup3\n        /* \"#utility.yul\":3205:3242   */\n      mstore\n        /* \"#utility.yul\":3130:3248   */\n      pop\n      pop\n      jump\t// out\n        /* \"#utility.yul\":3254:3476   */\n    tag_46:\n        /* \"#utility.yul\":3347:3351   */\n      0x00\n        /* \"#utility.yul\":3385:3387   */\n      0x20\n        /* \"#utility.yul\":3374:3383   */\n      dup3\n        /* \"#utility.yul\":3370:3388   */\n      add\n        /* \"#utility.yul\":3362:3388   */\n      swap1\n      pop\n        /* \"#utility.yul\":3398:3469   */\n      tag_256\n        /* \"#utility.yul\":3466:3467   */\n      0x00\n        /* \"#utility.yul\":3455:3464   */\n      dup4\n        /* \"#utility.yul\":3451:3468   */\n      add\n        /* \"#utility.yul\":3442:3448   */\n      dup5\n        /* \"#utility.yul\":3398:3469   */\n      tag_172\n      jump\t// in\n    tag_256:\n        /* \"#utility.yul\":3254:3476   */\n      swap3\n      swap2\n      pop\n      pop\n      jump\t// out\n        /* \"#utility.yul\":3482:3581   */\n    tag_173:\n        /* \"#utility.yul\":3534:3540   */\n      0x00\n        /* \"#utility.yul\":3568:3573   */\n      dup2\n        /* \"#utility.yul\":3562:3574   */\n      mload\n        /* \"#utility.yul\":3552:3574   */\n      swap1\n      pop\n        /* \"#utility.yul\":3482:3581   */\n      swap2\n      swap1\n      pop\n      jump\t// out\n        /* \"#utility.yul\":3587:3756   */\n    tag_174:\n        /* \"#utility.yul\":3671:3682   */\n      0x00\n        /* \"#utility.yul\":3705:3711   */\n      dup3\n        /* \"#utility.yul\":3700:3703   */\n      dup3\n        /* \"#utility.yul\":3693:3712   */\n      mstore\n        /* \"#utility.yul\":3745:3749   */\n      0x20\n        /* \"#utility.yul\":3740:3743   */\n      dup3\n        /* \"#utility.yul\":3736:3750   */\n      add\n        /* \"#utility.yul\":3721:3750   */\n      swap1\n      pop\n        /* \"#utility.yul\":3587:3756   */\n      swap3\n      swap2\n      pop\n      pop\n      jump\t// out\n        /* \"#utility.yul\":3762:3901   */\n    tag_175:\n        /* \"#utility.yul\":3851:3857   */\n      dup3\n        /* \"#utility.yul\":3846:3849   */\n      dup2\n        /* \"#utility.yul\":3841:3844   */\n      dup4\n        /* \"#utility.yul\":3835:3858   */\n      mcopy\n        /* \"#utility.yul\":3892:3893   */\n      0x00\n        /* \"#utility.yul\":3883:3889   */\n      dup4\n        /* \"#utility.yul\":3878:3881   */\n      dup4\n        /* \"#utility.yul\":3874:3890   */\n      add\n        /* \"#utility.yul\":3867:3894   */\n      mstore\n        /* \"#utility.yul\":3762:3901   */\n      pop\n      pop\n      pop\n      jump\t// out\n        /* \"#utility.yul\":3907:4009   */\n    tag_176:\n        /* \"#utility.yul\":3948:3954   */\n      0x00\n        /* \"#utility.yul\":3999:4001   */\n      0x1f\n        /* \"#utility.yul\":3995:4002   */\n      not\n        /* \"#utility.yul\":3990:3992   */\n      0x1f\n        /* \"#utility.yul\":3983:3988   */\n      dup4\n        /* \"#utility.yul\":3979:3993   */\n      add\n        /* \"#utility.yul\":3975:4003   */\n      and\n        /* \"#utility.yul\":3965:4003   */\n      swap1\n      pop\n        /* \"#utility.yul\":3907:4009   */\n      swap2\n      swap1\n      pop\n      jump\t// out\n        /* \"#utility.yul\":4015:4392   */\n    tag_177:\n        /* \"#utility.yul\":4103:4106   */\n      0x00\n        /* \"#utility.yul\":4131:4170   */\n      tag_262\n        /* \"#utility.yul\":4164:4169   */\n      dup3\n        /* \"#utility.yul\":4131:4170   */\n      tag_173\n      jump\t// in\n    tag_262:\n        /* \"#utility.yul\":4186:4257   */\n      tag_263\n        /* \"#utility.yul\":4250:4256   */\n      dup2\n        /* \"#utility.yul\":4245:4248   */\n      dup6\n        /* \"#utility.yul\":4186:4257   */\n      tag_174\n      jump\t// in\n    tag_263:\n        /* \"#utility.yul\":4179:4257   */\n      swap4\n      pop\n        /* \"#utility.yul\":4266:4331   */\n      tag_264\n        /* \"#utility.yul\":4324:4330   */\n      dup2\n        /* \"#utility.yul\":4319:4322   */\n      dup6\n        /* \"#utility.yul\":4312:4316   */\n      0x20\n        /* \"#utility.yul\":4305:4310   */\n      dup7\n        /* \"#utility.yul\":4301:4317   */\n      add\n        /* \"#utility.yul\":4266:4331   */\n      tag_175\n      jump\t// in\n    tag_264:\n        /* \"#utility.yul\":4356:4385   */\n      tag_265\n        /* \"#utility.yul\":4378:4384   */\n      dup2\n        /* \"#utility.yul\":4356:4385   */\n      tag_176\n      jump\t// in\n    tag_265:\n        /* \"#utility.yul\":4351:4354   */\n      dup5\n        /* \"#utility.yul\":4347:4386   */\n      add\n        /* \"#utility.yul\":4340:4386   */\n      swap2\n      pop\n        /* \"#utility.yul\":4107:4392   */\n      pop\n        /* \"#utility.yul\":4015:4392   */\n      swap3\n      swap2\n      pop\n      pop\n      jump\t// out\n        /* \"#utility.yul\":4398:5244   */\n    tag_59:\n        /* \"#utility.yul\":4643:4647   */\n      0x00\n        /* \"#utility.yul\":4681:4684   */\n      0xa0\n        /* \"#utility.yul\":4670:4679   */\n      dup3\n        /* \"#utility.yul\":4666:4685   */\n      add\n        /* \"#utility.yul\":4658:4685   */\n      swap1\n      pop\n        /* \"#utility.yul\":4731:4740   */\n      dup2\n        /* \"#utility.yul\":4725:4729   */\n      dup2\n        /* \"#utility.yul\":4721:4741   */\n      sub\n        /* \"#utility.yul\":4717:4718   */\n      0x00\n        /* \"#utility.yul\":4706:4715   */\n      dup4\n        /* \"#utility.yul\":4702:4719   */\n      add\n        /* \"#utility.yul\":4695:4742   */\n      mstore\n        /* \"#utility.yul\":4759:4837   */\n      tag_267\n        /* \"#utility.yul\":4832:4836   */\n      dup2\n        /* \"#utility.yul\":4823:4829   */\n      dup9\n        /* \"#utility.yul\":4759:4837   */\n      tag_177\n      jump\t// in\n    tag_267:\n        /* \"#utility.yul\":4751:4837   */\n      swap1\n      pop\n        /* \"#utility.yul\":4884:4893   */\n      dup2\n        /* \"#utility.yul\":4878:4882   */\n      dup2\n        /* \"#utility.yul\":4874:4894   */\n      sub\n        /* \"#utility.yul\":4869:4871   */\n      0x20\n        /* \"#utility.yul\":4858:4867   */\n      dup4\n        /* \"#utility.yul\":4854:4872   */\n      add\n        /* \"#utility.yul\":4847:4895   */\n      mstore\n        /* \"#utility.yul\":4912:4990   */\n      tag_268\n        /* \"#utility.yul\":4985:4989   */\n      dup2\n        /* \"#utility.yul\":4976:4982   */\n      dup8\n        /* \"#utility.yul\":4912:4990   */\n      tag_177\n      jump\t// in\n    tag_268:\n        /* \"#utility.yul\":4904:4990   */\n      swap1\n      pop\n        /* \"#utility.yul\":5000:5072   */\n      tag_269\n        /* \"#utility.yul\":5068:5070   */\n      0x40\n        /* \"#utility.yul\":5057:5066   */\n      dup4\n        /* \"#utility.yul\":5053:5071   */\n      add\n        /* \"#utility.yul\":5044:5050   */\n      dup7\n        /* \"#utility.yul\":5000:5072   */\n      tag_168\n      jump\t// in\n    tag_269:\n        /* \"#utility.yul\":5082:5154   */\n      tag_270\n        /* \"#utility.yul\":5150:5152   */\n      0x60\n        /* \"#utility.yul\":5139:5148   */\n      dup4\n        /* \"#utility.yul\":5135:5153   */\n      add\n        /* \"#utility.yul\":5126:5132   */\n      dup6\n        /* \"#utility.yul\":5082:5154   */\n      tag_168\n      jump\t// in\n    tag_270:\n        /* \"#utility.yul\":5164:5237   */\n      tag_271\n        /* \"#utility.yul\":5232:5235   */\n      0x80\n        /* \"#utility.yul\":5221:5230   */\n      dup4\n        /* \"#utility.yul\":5217:5236   */\n      add\n        /* \"#utility.yul\":5208:5214   */\n      dup5\n        /* \"#utility.yul\":5164:5237   */\n      tag_168\n      jump\t// in\n    tag_271:\n        /* \"#utility.yul\":4398:5244   */\n      swap7\n      swap6\n      pop\n      pop\n      pop\n      pop\n      pop\n      pop\n      jump\t// out\n        /* \"#utility.yul\":5250:5423   */\n    tag_178:\n        /* \"#utility.yul\":5390:5415   */\n      0x496e73756666696369656e742066756e64732073656e74000000000000000000\n        /* \"#utility.yul\":5386:5387   */\n      0x00\n        /* \"#utility.yul\":5378:5384   */\n      dup3\n        /* \"#utility.yul\":5374:5388   */\n      add\n        /* \"#utility.yul\":5367:5416   */\n      mstore\n        /* \"#utility.yul\":5250:5423   */\n      pop\n      jump\t// out\n        /* \"#utility.yul\":5429:5795   */\n    tag_179:\n        /* \"#utility.yul\":5571:5574   */\n      0x00\n        /* \"#utility.yul\":5592:5659   */\n      tag_274\n        /* \"#utility.yul\":5656:5658   */\n      0x17\n        /* \"#utility.yul\":5651:5654   */\n      dup4\n        /* \"#utility.yul\":5592:5659   */\n      tag_174\n      jump\t// in\n    tag_274:\n        /* \"#utility.yul\":5585:5659   */\n      swap2\n      pop\n        /* \"#utility.yul\":5668:5761   */\n      tag_275\n        /* \"#utility.yul\":5757:5760   */\n      dup3\n        /* \"#utility.yul\":5668:5761   */\n      tag_178\n      jump\t// in\n    tag_275:\n        /* \"#utility.yul\":5786:5788   */\n      0x20\n        /* \"#utility.yul\":5781:5784   */\n      dup3\n        /* \"#utility.yul\":5777:5789   */\n      add\n        /* \"#utility.yul\":5770:5789   */\n      swap1\n      pop\n        /* \"#utility.yul\":5429:5795   */\n      swap2\n      swap1\n      pop\n      jump\t// out\n        /* \"#utility.yul\":5801:6220   */\n    tag_63:\n        /* \"#utility.yul\":5967:5971   */\n      0x00\n        /* \"#utility.yul\":6005:6007   */\n      0x20\n        /* \"#utility.yul\":5994:6003   */\n      dup3\n        /* \"#utility.yul\":5990:6008   */\n      add\n        /* \"#utility.yul\":5982:6008   */\n      swap1\n      pop\n        /* \"#utility.yul\":6054:6063   */\n      dup2\n        /* \"#utility.yul\":6048:6052   */\n      dup2\n        /* \"#utility.yul\":6044:6064   */\n      sub\n        /* \"#utility.yul\":6040:6041   */\n      0x00\n        /* \"#utility.yul\":6029:6038   */\n      dup4\n        /* \"#utility.yul\":6025:6042   */\n      add\n        /* \"#utility.yul\":6018:6065   */\n      mstore\n        /* \"#utility.yul\":6082:6213   */\n      tag_277\n        /* \"#utility.yul\":6208:6212   */\n      dup2\n        /* \"#utility.yul\":6082:6213   */\n      tag_179\n      jump\t// in\n    tag_277:\n        /* \"#utility.yul\":6074:6213   */\n      swap1\n      pop\n        /* \"#utility.yul\":5801:6220   */\n      swap2\n      swap1\n      pop\n      jump\t// out\n        /* \"#utility.yul\":6226:6373   */\n    tag_180:\n        /* \"#utility.yul\":6327:6338   */\n      0x00\n        /* \"#utility.yul\":6364:6367   */\n      dup2\n        /* \"#utility.yul\":6349:6367   */\n      swap1\n      pop\n        /* \"#utility.yul\":6226:6373   */\n      swap3\n      swap2\n      pop\n      pop\n      jump\t// out\n        /* \"#utility.yul\":6379:6493   */\n    tag_181:\n      pop\n      jump\t// out\n        /* \"#utility.yul\":6499:6897   */\n    tag_182:\n        /* \"#utility.yul\":6658:6661   */\n      0x00\n        /* \"#utility.yul\":6679:6762   */\n      tag_281\n        /* \"#utility.yul\":6760:6761   */\n      0x00\n        /* \"#utility.yul\":6755:6758   */\n      dup4\n        /* \"#utility.yul\":6679:6762   */\n      tag_180\n      jump\t// in\n    tag_281:\n        /* \"#utility.yul\":6672:6762   */\n      swap2\n      pop\n        /* \"#utility.yul\":6771:6864   */\n      tag_282\n        /* \"#utility.yul\":6860:6863   */\n      dup3\n        /* \"#utility.yul\":6771:6864   */\n      tag_181\n      jump\t// in\n    tag_282:\n        /* \"#utility.yul\":6889:6890   */\n      0x00\n        /* \"#utility.yul\":6884:6887   */\n      dup3\n        /* \"#utility.yul\":6880:6891   */\n      add\n        /* \"#utility.yul\":6873:6891   */\n      swap1\n      pop\n        /* \"#utility.yul\":6499:6897   */\n      swap2\n      swap1\n      pop\n      jump\t// out\n        /* \"#utility.yul\":6903:7282   */\n    tag_65:\n        /* \"#utility.yul\":7087:7090   */\n      0x00\n        /* \"#utility.yul\":7109:7256   */\n      tag_284\n        /* \"#utility.yul\":7252:7255   */\n      dup3\n        /* \"#utility.yul\":7109:7256   */\n      tag_182\n      jump\t// in\n    tag_284:\n        /* \"#utility.yul\":7102:7256   */\n      swap2\n      pop\n        /* \"#utility.yul\":7273:7276   */\n      dup2\n        /* \"#utility.yul\":7266:7276   */\n      swap1\n      pop\n        /* \"#utility.yul\":6903:7282   */\n      swap2\n      swap1\n      pop\n      jump\t// out\n        /* \"#utility.yul\":7288:7453   */\n    tag_183:\n        /* \"#utility.yul\":7428:7445   */\n      0x5472616e73666572206661696c65640000000000000000000000000000000000\n        /* \"#utility.yul\":7424:7425   */\n      0x00\n        /* \"#utility.yul\":7416:7422   */\n      dup3\n        /* \"#utility.yul\":7412:7426   */\n      add\n        /* \"#utility.yul\":7405:7446   */\n      mstore\n        /* \"#utility.yul\":7288:7453   */\n      pop\n      jump\t// out\n        /* \"#utility.yul\":7459:7825   */\n    tag_184:\n        /* \"#utility.yul\":7601:7604   */\n      0x00\n        /* \"#utility.yul\":7622:7689   */\n      tag_287\n        /* \"#utility.yul\":7686:7688   */\n      0x0f\n        /* \"#utility.yul\":7681:7684   */\n      dup4\n        /* \"#utility.yul\":7622:7689   */\n      tag_174\n      jump\t// in\n    tag_287:\n        /* \"#utility.yul\":7615:7689   */\n      swap2\n      pop\n        /* \"#utility.yul\":7698:7791   */\n      tag_288\n        /* \"#utility.yul\":7787:7790   */\n      dup3\n        /* \"#utility.yul\":7698:7791   */\n      tag_183\n      jump\t// in\n    tag_288:\n        /* \"#utility.yul\":7816:7818   */\n      0x20\n        /* \"#utility.yul\":7811:7814   */\n      dup3\n        /* \"#utility.yul\":7807:7819   */\n      add\n        /* \"#utility.yul\":7800:7819   */\n      swap1\n      pop\n        /* \"#utility.yul\":7459:7825   */\n      swap2\n      swap1\n      pop\n      jump\t// out\n        /* \"#utility.yul\":7831:8250   */\n    tag_71:\n        /* \"#utility.yul\":7997:8001   */\n      0x00\n        /* \"#utility.yul\":8035:8037   */\n      0x20\n        /* \"#utility.yul\":8024:8033   */\n      dup3\n        /* \"#utility.yul\":8020:8038   */\n      add\n        /* \"#utility.yul\":8012:8038   */\n      swap1\n      pop\n        /* \"#utility.yul\":8084:8093   */\n      dup2\n        /* \"#utility.yul\":8078:8082   */\n      dup2\n        /* \"#utility.yul\":8074:8094   */\n      sub\n        /* \"#utility.yul\":8070:8071   */\n      0x00\n        /* \"#utility.yul\":8059:8068   */\n      dup4\n        /* \"#utility.yul\":8055:8072   */\n      add\n        /* \"#utility.yul\":8048:8095   */\n      mstore\n        /* \"#utility.yul\":8112:8243   */\n      tag_290\n        /* \"#utility.yul\":8238:8242   */\n      dup2\n        /* \"#utility.yul\":8112:8243   */\n      tag_184\n      jump\t// in\n    tag_290:\n        /* \"#utility.yul\":8104:8243   */\n      swap1\n      pop\n        /* \"#utility.yul\":7831:8250   */\n      swap2\n      swap1\n      pop\n      jump\t// out\n        /* \"#utility.yul\":8256:8476   */\n    tag_185:\n        /* \"#utility.yul\":8396:8430   */\n      0x4f6e6c79206f776e65722063616e2063616c6c20746869732066756e6374696f\n        /* \"#utility.yul\":8392:8393   */\n      0x00\n        /* \"#utility.yul\":8384:8390   */\n      dup3\n        /* \"#utility.yul\":8380:8394   */\n      add\n        /* \"#utility.yul\":8373:8431   */\n      mstore\n        /* \"#utility.yul\":8465:8468   */\n      0x6e00000000000000000000000000000000000000000000000000000000000000\n        /* \"#utility.yul\":8460:8462   */\n      0x20\n        /* \"#utility.yul\":8452:8458   */\n      dup3\n        /* \"#utility.yul\":8448:8463   */\n      add\n        /* \"#utility.yul\":8441:8469   */\n      mstore\n        /* \"#utility.yul\":8256:8476   */\n      pop\n      jump\t// out\n        /* \"#utility.yul\":8482:8848   */\n    tag_186:\n        /* \"#utility.yul\":8624:8627   */\n      0x00\n        /* \"#utility.yul\":8645:8712   */\n      tag_293\n        /* \"#utility.yul\":8709:8711   */\n      0x21\n        /* \"#utility.yul\":8704:8707   */\n      dup4\n        /* \"#utility.yul\":8645:8712   */\n      tag_174\n      jump\t// in\n    tag_293:\n        /* \"#utility.yul\":8638:8712   */\n      swap2\n      pop\n        /* \"#utility.yul\":8721:8814   */\n      tag_294\n        /* \"#utility.yul\":8810:8813   */\n      dup3\n        /* \"#utility.yul\":8721:8814   */\n      tag_185\n      jump\t// in\n    tag_294:\n        /* \"#utility.yul\":8839:8841   */\n      0x40\n        /* \"#utility.yul\":8834:8837   */\n      dup3\n        /* \"#utility.yul\":8830:8842   */\n      add\n        /* \"#utility.yul\":8823:8842   */\n      swap1\n      pop\n        /* \"#utility.yul\":8482:8848   */\n      swap2\n      swap1\n      pop\n      jump\t// out\n        /* \"#utility.yul\":8854:9273   */\n    tag_75:\n        /* \"#utility.yul\":9020:9024   */\n      0x00\n        /* \"#utility.yul\":9058:9060   */\n      0x20\n        /* \"#utility.yul\":9047:9056   */\n      dup3\n        /* \"#utility.yul\":9043:9061   */\n      add\n        /* \"#utility.yul\":9035:9061   */\n      swap1\n      pop\n        /* \"#utility.yul\":9107:9116   */\n      dup2\n        /* \"#utility.yul\":9101:9105   */\n      dup2\n        /* \"#utility.yul\":9097:9117   */\n      sub\n        /* \"#utility.yul\":9093:9094   */\n      0x00\n        /* \"#utility.yul\":9082:9091   */\n      dup4\n        /* \"#utility.yul\":9078:9095   */\n      add\n        /* \"#utility.yul\":9071:9118   */\n      mstore\n        /* \"#utility.yul\":9135:9266   */\n      tag_296\n        /* \"#utility.yul\":9261:9265   */\n      dup2\n        /* \"#utility.yul\":9135:9266   */\n      tag_186\n      jump\t// in\n    tag_296:\n        /* \"#utility.yul\":9127:9266   */\n      swap1\n      pop\n        /* \"#utility.yul\":8854:9273   */\n      swap2\n      swap1\n      pop\n      jump\t// out\n        /* \"#utility.yul\":9279:9422   */\n    tag_187:\n        /* \"#utility.yul\":9336:9341   */\n      0x00\n        /* \"#utility.yul\":9367:9373   */\n      dup2\n        /* \"#utility.yul\":9361:9374   */\n      mload\n        /* \"#utility.yul\":9352:9374   */\n      swap1\n      pop\n        /* \"#utility.yul\":9383:9416   */\n      tag_298\n        /* \"#utility.yul\":9410:9415   */\n      dup2\n        /* \"#utility.yul\":9383:9416   */\n      tag_166\n      jump\t// in\n    tag_298:\n        /* \"#utility.yul\":9279:9422   */\n      swap3\n      swap2\n      pop\n      pop\n      jump\t// out\n        /* \"#utility.yul\":9428:9779   */\n    tag_81:\n        /* \"#utility.yul\":9498:9504   */\n      0x00\n        /* \"#utility.yul\":9547:9549   */\n      0x20\n        /* \"#utility.yul\":9535:9544   */\n      dup3\n        /* \"#utility.yul\":9526:9533   */\n      dup5\n        /* \"#utility.yul\":9522:9545   */\n      sub\n        /* \"#utility.yul\":9518:9550   */\n      slt\n        /* \"#utility.yul\":9515:9634   */\n      iszero\n      tag_300\n      jumpi\n        /* \"#utility.yul\":9553:9632   */\n      tag_301\n      tag_159\n      jump\t// in\n    tag_301:\n        /* \"#utility.yul\":9515:9634   */\n    tag_300:\n        /* \"#utility.yul\":9673:9674   */\n      0x00\n        /* \"#utility.yul\":9698:9762   */\n      tag_302\n        /* \"#utility.yul\":9754:9761   */\n      dup5\n        /* \"#utility.yul\":9745:9751   */\n      dup3\n        /* \"#utility.yul\":9734:9743   */\n      dup6\n        /* \"#utility.yul\":9730:9752   */\n      add\n        /* \"#utility.yul\":9698:9762   */\n      tag_187\n      jump\t// in\n    tag_302:\n        /* \"#utility.yul\":9688:9762   */\n      swap2\n      pop\n        /* \"#utility.yul\":9644:9772   */\n      pop\n        /* \"#utility.yul\":9428:9779   */\n      swap3\n      swap2\n      pop\n      pop\n      jump\t// out\n        /* \"#utility.yul\":9785:9956   */\n    tag_188:\n        /* \"#utility.yul\":9925:9948   */\n      0x4e6f20746f6b656e7320746f2077697468647261770000000000000000000000\n        /* \"#utility.yul\":9921:9922   */\n      0x00\n        /* \"#utility.yul\":9913:9919   */\n      dup3\n        /* \"#utility.yul\":9909:9923   */\n      add\n        /* \"#utility.yul\":9902:9949   */\n      mstore\n        /* \"#utility.yul\":9785:9956   */\n      pop\n      jump\t// out\n        /* \"#utility.yul\":9962:10328   */\n    tag_189:\n        /* \"#utility.yul\":10104:10107   */\n      0x00\n        /* \"#utility.yul\":10125:10192   */\n      tag_305\n        /* \"#utility.yul\":10189:10191   */\n      0x15\n        /* \"#utility.yul\":10184:10187   */\n      dup4\n        /* \"#utility.yul\":10125:10192   */\n      tag_174\n      jump\t// in\n    tag_305:\n        /* \"#utility.yul\":10118:10192   */\n      swap2\n      pop\n        /* \"#utility.yul\":10201:10294   */\n      tag_306\n        /* \"#utility.yul\":10290:10293   */\n      dup3\n        /* \"#utility.yul\":10201:10294   */\n      tag_188\n      jump\t// in\n    tag_306:\n        /* \"#utility.yul\":10319:10321   */\n      0x20\n        /* \"#utility.yul\":10314:10317   */\n      dup3\n        /* \"#utility.yul\":10310:10322   */\n      add\n        /* \"#utility.yul\":10303:10322   */\n      swap1\n      pop\n        /* \"#utility.yul\":9962:10328   */\n      swap2\n      swap1\n      pop\n      jump\t// out\n        /* \"#utility.yul\":10334:10753   */\n    tag_84:\n        /* \"#utility.yul\":10500:10504   */\n      0x00\n        /* \"#utility.yul\":10538:10540   */\n      0x20\n        /* \"#utility.yul\":10527:10536   */\n      dup3\n        /* \"#utility.yul\":10523:10541   */\n      add\n        /* \"#utility.yul\":10515:10541   */\n      swap1\n      pop\n        /* \"#utility.yul\":10587:10596   */\n      dup2\n        /* \"#utility.yul\":10581:10585   */\n      dup2\n        /* \"#utility.yul\":10577:10597   */\n      sub\n        /* \"#utility.yul\":10573:10574   */\n      0x00\n        /* \"#utility.yul\":10562:10571   */\n      dup4\n        /* \"#utility.yul\":10558:10575   */\n      add\n        /* \"#utility.yul\":10551:10598   */\n      mstore\n        /* \"#utility.yul\":10615:10746   */\n      tag_308\n        /* \"#utility.yul\":10741:10745   */\n      dup2\n        /* \"#utility.yul\":10615:10746   */\n      tag_189\n      jump\t// in\n    tag_308:\n        /* \"#utility.yul\":10607:10746   */\n      swap1\n      pop\n        /* \"#utility.yul\":10334:10753   */\n      swap2\n      swap1\n      pop\n      jump\t// out\n        /* \"#utility.yul\":10759:11091   */\n    tag_86:\n        /* \"#utility.yul\":10880:10884   */\n      0x00\n        /* \"#utility.yul\":10918:10920   */\n      0x40\n        /* \"#utility.yul\":10907:10916   */\n      dup3\n        /* \"#utility.yul\":10903:10921   */\n      add\n        /* \"#utility.yul\":10895:10921   */\n      swap1\n      pop\n        /* \"#utility.yul\":10931:11002   */\n      tag_310\n        /* \"#utility.yul\":10999:11000   */\n      0x00\n        /* \"#utility.yul\":10988:10997   */\n      dup4\n        /* \"#utility.yul\":10984:11001   */\n      add\n        /* \"#utility.yul\":10975:10981   */\n      dup6\n        /* \"#utility.yul\":10931:11002   */\n      tag_172\n      jump\t// in\n    tag_310:\n        /* \"#utility.yul\":11012:11084   */\n      tag_311\n        /* \"#utility.yul\":11080:11082   */\n      0x20\n        /* \"#utility.yul\":11069:11078   */\n      dup4\n        /* \"#utility.yul\":11065:11083   */\n      add\n        /* \"#utility.yul\":11056:11062   */\n      dup5\n        /* \"#utility.yul\":11012:11084   */\n      tag_168\n      jump\t// in\n    tag_311:\n        /* \"#utility.yul\":10759:11091   */\n      swap4\n      swap3\n      pop\n      pop\n      pop\n      jump\t// out\n        /* \"#utility.yul\":11097:11187   */\n    tag_190:\n        /* \"#utility.yul\":11131:11138   */\n      0x00\n        /* \"#utility.yul\":11174:11179   */\n      dup2\n        /* \"#utility.yul\":11167:11180   */\n      iszero\n        /* \"#utility.yul\":11160:11181   */\n      iszero\n        /* \"#utility.yul\":11149:11181   */\n      swap1\n      pop\n        /* \"#utility.yul\":11097:11187   */\n      swap2\n      swap1\n      pop\n      jump\t// out\n        /* \"#utility.yul\":11193:11309   */\n    tag_191:\n        /* \"#utility.yul\":11263:11284   */\n      tag_314\n        /* \"#utility.yul\":11278:11283   */\n      dup2\n        /* \"#utility.yul\":11263:11284   */\n      tag_190\n      jump\t// in\n    tag_314:\n        /* \"#utility.yul\":11256:11261   */\n      dup2\n        /* \"#utility.yul\":11253:11285   */\n      eq\n        /* \"#utility.yul\":11243:11303   */\n      tag_315\n      jumpi\n        /* \"#utility.yul\":11299:11300   */\n      0x00\n        /* \"#utility.yul\":11296:11297   */\n      dup1\n        /* \"#utility.yul\":11289:11301   */\n      revert\n        /* \"#utility.yul\":11243:11303   */\n    tag_315:\n        /* \"#utility.yul\":11193:11309   */\n      pop\n      jump\t// out\n        /* \"#utility.yul\":11315:11452   */\n    tag_192:\n        /* \"#utility.yul\":11369:11374   */\n      0x00\n        /* \"#utility.yul\":11400:11406   */\n      dup2\n        /* \"#utility.yul\":11394:11407   */\n      mload\n        /* \"#utility.yul\":11385:11407   */\n      swap1\n      pop\n        /* \"#utility.yul\":11416:11446   */\n      tag_317\n        /* \"#utility.yul\":11440:11445   */\n      dup2\n        /* \"#utility.yul\":11416:11446   */\n      tag_191\n      jump\t// in\n    tag_317:\n        /* \"#utility.yul\":11315:11452   */\n      swap3\n      swap2\n      pop\n      pop\n      jump\t// out\n        /* \"#utility.yul\":11458:11803   */\n    tag_90:\n        /* \"#utility.yul\":11525:11531   */\n      0x00\n        /* \"#utility.yul\":11574:11576   */\n      0x20\n        /* \"#utility.yul\":11562:11571   */\n      dup3\n        /* \"#utility.yul\":11553:11560   */\n      dup5\n        /* \"#utility.yul\":11549:11572   */\n      sub\n        /* \"#utility.yul\":11545:11577   */\n      slt\n        /* \"#utility.yul\":11542:11661   */\n      iszero\n      tag_319\n      jumpi\n        /* \"#utility.yul\":11580:11659   */\n      tag_320\n      tag_159\n      jump\t// in\n    tag_320:\n        /* \"#utility.yul\":11542:11661   */\n    tag_319:\n        /* \"#utility.yul\":11700:11701   */\n      0x00\n        /* \"#utility.yul\":11725:11786   */\n      tag_321\n        /* \"#utility.yul\":11778:11785   */\n      dup5\n        /* \"#utility.yul\":11769:11775   */\n      dup3\n        /* \"#utility.yul\":11758:11767   */\n      dup6\n        /* \"#utility.yul\":11754:11776   */\n      add\n        /* \"#utility.yul\":11725:11786   */\n      tag_192\n      jump\t// in\n    tag_321:\n        /* \"#utility.yul\":11715:11786   */\n      swap2\n      pop\n        /* \"#utility.yul\":11671:11796   */\n      pop\n        /* \"#utility.yul\":11458:11803   */\n      swap3\n      swap2\n      pop\n      pop\n      jump\t// out\n        /* \"#utility.yul\":11809:11976   */\n    tag_193:\n        /* \"#utility.yul\":11949:11968   */\n      0x5769746864726177616c206661696c6564000000000000000000000000000000\n        /* \"#utility.yul\":11945:11946   */\n      0x00\n        /* \"#utility.yul\":11937:11943   */\n      dup3\n        /* \"#utility.yul\":11933:11947   */\n      add\n        /* \"#utility.yul\":11926:11969   */\n      mstore\n        /* \"#utility.yul\":11809:11976   */\n      pop\n      jump\t// out\n        /* \"#utility.yul\":11982:12348   */\n    tag_194:\n        /* \"#utility.yul\":12124:12127   */\n      0x00\n        /* \"#utility.yul\":12145:12212   */\n      tag_324\n        /* \"#utility.yul\":12209:12211   */\n      0x11\n        /* \"#utility.yul\":12204:12207   */\n      dup4\n        /* \"#utility.yul\":12145:12212   */\n      tag_174\n      jump\t// in\n    tag_324:\n        /* \"#utility.yul\":12138:12212   */\n      swap2\n      pop\n        /* \"#utility.yul\":12221:12314   */\n      tag_325\n        /* \"#utility.yul\":12310:12313   */\n      dup3\n        /* \"#utility.yul\":12221:12314   */\n      tag_193\n      jump\t// in\n    tag_325:\n        /* \"#utility.yul\":12339:12341   */\n      0x20\n        /* \"#utility.yul\":12334:12337   */\n      dup3\n        /* \"#utility.yul\":12330:12342   */\n      add\n        /* \"#utility.yul\":12323:12342   */\n      swap1\n      pop\n        /* \"#utility.yul\":11982:12348   */\n      swap2\n      swap1\n      pop\n      jump\t// out\n        /* \"#utility.yul\":12354:12773   */\n    tag_93:\n        /* \"#utility.yul\":12520:12524   */\n      0x00\n        /* \"#utility.yul\":12558:12560   */\n      0x20\n        /* \"#utility.yul\":12547:12556   */\n      dup3\n        /* \"#utility.yul\":12543:12561   */\n      add\n        /* \"#utility.yul\":12535:12561   */\n      swap1\n      pop\n        /* \"#utility.yul\":12607:12616   */\n      dup2\n        /* \"#utility.yul\":12601:12605   */\n      dup2\n        /* \"#utility.yul\":12597:12617   */\n      sub\n        /* \"#utility.yul\":12593:12594   */\n      0x00\n        /* \"#utility.yul\":12582:12591   */\n      dup4\n        /* \"#utility.yul\":12578:12595   */\n      add\n        /* \"#utility.yul\":12571:12618   */\n      mstore\n        /* \"#utility.yul\":12635:12766   */\n      tag_327\n        /* \"#utility.yul\":12761:12765   */\n      dup2\n        /* \"#utility.yul\":12635:12766   */\n      tag_194\n      jump\t// in\n    tag_327:\n        /* \"#utility.yul\":12627:12766   */\n      swap1\n      pop\n        /* \"#utility.yul\":12354:12773   */\n      swap2\n      swap1\n      pop\n      jump\t// out\n        /* \"#utility.yul\":12779:13016   */\n    tag_195:\n        /* \"#utility.yul\":12919:12953   */\n      0x496e73756666696369656e742045746865722050726f766964656420666f7220\n        /* \"#utility.yul\":12915:12916   */\n      0x00\n        /* \"#utility.yul\":12907:12913   */\n      dup3\n        /* \"#utility.yul\":12903:12917   */\n      add\n        /* \"#utility.yul\":12896:12954   */\n      mstore\n        /* \"#utility.yul\":12988:13008   */\n      0x74686520746f6b656e2070757263686173650000000000000000000000000000\n        /* \"#utility.yul\":12983:12985   */\n      0x20\n        /* \"#utility.yul\":12975:12981   */\n      dup3\n        /* \"#utility.yul\":12971:12986   */\n      add\n        /* \"#utility.yul\":12964:13009   */\n      mstore\n        /* \"#utility.yul\":12779:13016   */\n      pop\n      jump\t// out\n        /* \"#utility.yul\":13022:13388   */\n    tag_196:\n        /* \"#utility.yul\":13164:13167   */\n      0x00\n        /* \"#utility.yul\":13185:13252   */\n      tag_330\n        /* \"#utility.yul\":13249:13251   */\n      0x32\n        /* \"#utility.yul\":13244:13247   */\n      dup4\n        /* \"#utility.yul\":13185:13252   */\n      tag_174\n      jump\t// in\n    tag_330:\n        /* \"#utility.yul\":13178:13252   */\n      swap2\n      pop\n        /* \"#utility.yul\":13261:13354   */\n      tag_331\n        /* \"#utility.yul\":13350:13353   */\n      dup3\n        /* \"#utility.yul\":13261:13354   */\n      tag_195\n      jump\t// in\n    tag_331:\n        /* \"#utility.yul\":13379:13381   */\n      0x40\n        /* \"#utility.yul\":13374:13377   */\n      dup3\n        /* \"#utility.yul\":13370:13382   */\n      add\n        /* \"#utility.yul\":13363:13382   */\n      swap1\n      pop\n        /* \"#utility.yul\":13022:13388   */\n      swap2\n      swap1\n      pop\n      jump\t// out\n        /* \"#utility.yul\":13394:13813   */\n    tag_99:\n        /* \"#utility.yul\":13560:13564   */\n      0x00\n        /* \"#utility.yul\":13598:13600   */\n      0x20\n        /* \"#utility.yul\":13587:13596   */\n      dup3\n        /* \"#utility.yul\":13583:13601   */\n      add\n        /* \"#utility.yul\":13575:13601   */\n      swap1\n      pop\n        /* \"#utility.yul\":13647:13656   */\n      dup2\n        /* \"#utility.yul\":13641:13645   */\n      dup2\n        /* \"#utility.yul\":13637:13657   */\n      sub\n        /* \"#utility.yul\":13633:13634   */\n      0x00\n        /* \"#utility.yul\":13622:13631   */\n      dup4\n        /* \"#utility.yul\":13618:13635   */\n      add\n        /* \"#utility.yul\":13611:13658   */\n      mstore\n        /* \"#utility.yul\":13675:13806   */\n      tag_333\n        /* \"#utility.yul\":13801:13805   */\n      dup2\n        /* \"#utility.yul\":13675:13806   */\n      tag_196\n      jump\t// in\n    tag_333:\n        /* \"#utility.yul\":13667:13806   */\n      swap1\n      pop\n        /* \"#utility.yul\":13394:13813   */\n      swap2\n      swap1\n      pop\n      jump\t// out\n        /* \"#utility.yul\":13819:13999   */\n    tag_197:\n        /* \"#utility.yul\":13959:13991   */\n      0x4e6f7420656e6f75676820746f6b656e206c65667420666f722073616c650000\n        /* \"#utility.yul\":13955:13956   */\n      0x00\n        /* \"#utility.yul\":13947:13953   */\n      dup3\n        /* \"#utility.yul\":13943:13957   */\n      add\n        /* \"#utility.yul\":13936:13992   */\n      mstore\n        /* \"#utility.yul\":13819:13999   */\n      pop\n      jump\t// out\n        /* \"#utility.yul\":14005:14371   */\n    tag_198:\n        /* \"#utility.yul\":14147:14150   */\n      0x00\n        /* \"#utility.yul\":14168:14235   */\n      tag_336\n        /* \"#utility.yul\":14232:14234   */\n      0x1e\n        /* \"#utility.yul\":14227:14230   */\n      dup4\n        /* \"#utility.yul\":14168:14235   */\n      tag_174\n      jump\t// in\n    tag_336:\n        /* \"#utility.yul\":14161:14235   */\n      swap2\n      pop\n        /* \"#utility.yul\":14244:14337   */\n      tag_337\n        /* \"#utility.yul\":14333:14336   */\n      dup3\n        /* \"#utility.yul\":14244:14337   */\n      tag_197\n      jump\t// in\n    tag_337:\n        /* \"#utility.yul\":14362:14364   */\n      0x20\n        /* \"#utility.yul\":14357:14360   */\n      dup3\n        /* \"#utility.yul\":14353:14365   */\n      add\n        /* \"#utility.yul\":14346:14365   */\n      swap1\n      pop\n        /* \"#utility.yul\":14005:14371   */\n      swap2\n      swap1\n      pop\n      jump\t// out\n        /* \"#utility.yul\":14377:14796   */\n    tag_106:\n        /* \"#utility.yul\":14543:14547   */\n      0x00\n        /* \"#utility.yul\":14581:14583   */\n      0x20\n        /* \"#utility.yul\":14570:14579   */\n      dup3\n        /* \"#utility.yul\":14566:14584   */\n      add\n        /* \"#utility.yul\":14558:14584   */\n      swap1\n      pop\n        /* \"#utility.yul\":14630:14639   */\n      dup2\n        /* \"#utility.yul\":14624:14628   */\n      dup2\n        /* \"#utility.yul\":14620:14640   */\n      sub\n        /* \"#utility.yul\":14616:14617   */\n      0x00\n        /* \"#utility.yul\":14605:14614   */\n      dup4\n        /* \"#utility.yul\":14601:14618   */\n      add\n        /* \"#utility.yul\":14594:14641   */\n      mstore\n        /* \"#utility.yul\":14658:14789   */\n      tag_339\n        /* \"#utility.yul\":14784:14788   */\n      dup2\n        /* \"#utility.yul\":14658:14789   */\n      tag_198\n      jump\t// in\n    tag_339:\n        /* \"#utility.yul\":14650:14789   */\n      swap1\n      pop\n        /* \"#utility.yul\":14377:14796   */\n      swap2\n      swap1\n      pop\n      jump\t// out\n        /* \"#utility.yul\":14802:14982   */\n    tag_199:\n        /* \"#utility.yul\":14850:14927   */\n      0x4e487b7100000000000000000000000000000000000000000000000000000000\n        /* \"#utility.yul\":14847:14848   */\n      0x00\n        /* \"#utility.yul\":14840:14928   */\n      mstore\n        /* \"#utility.yul\":14947:14951   */\n      0x11\n        /* \"#utility.yul\":14944:14945   */\n      0x04\n        /* \"#utility.yul\":14937:14952   */\n      mstore\n        /* \"#utility.yul\":14971:14975   */\n      0x24\n        /* \"#utility.yul\":14968:14969   */\n      0x00\n        /* \"#utility.yul\":14961:14976   */\n      revert\n        /* \"#utility.yul\":14988:15398   */\n    tag_108:\n        /* \"#utility.yul\":15028:15035   */\n      0x00\n        /* \"#utility.yul\":15051:15071   */\n      tag_342\n        /* \"#utility.yul\":15069:15070   */\n      dup3\n        /* \"#utility.yul\":15051:15071   */\n      tag_165\n      jump\t// in\n    tag_342:\n        /* \"#utility.yul\":15046:15071   */\n      swap2\n      pop\n        /* \"#utility.yul\":15085:15105   */\n      tag_343\n        /* \"#utility.yul\":15103:15104   */\n      dup4\n        /* \"#utility.yul\":15085:15105   */\n      tag_165\n      jump\t// in\n    tag_343:\n        /* \"#utility.yul\":15080:15105   */\n      swap3\n      pop\n        /* \"#utility.yul\":15140:15141   */\n      dup3\n        /* \"#utility.yul\":15137:15138   */\n      dup3\n        /* \"#utility.yul\":15133:15142   */\n      mul\n        /* \"#utility.yul\":15162:15192   */\n      tag_344\n        /* \"#utility.yul\":15180:15191   */\n      dup2\n        /* \"#utility.yul\":15162:15192   */\n      tag_165\n      jump\t// in\n    tag_344:\n        /* \"#utility.yul\":15151:15192   */\n      swap2\n      pop\n        /* \"#utility.yul\":15341:15342   */\n      dup3\n        /* \"#utility.yul\":15332:15339   */\n      dup3\n        /* \"#utility.yul\":15328:15343   */\n      div\n        /* \"#utility.yul\":15325:15326   */\n      dup5\n        /* \"#utility.yul\":15322:15344   */\n      eq\n        /* \"#utility.yul\":15302:15303   */\n      dup4\n        /* \"#utility.yul\":15295:15304   */\n      iszero\n        /* \"#utility.yul\":15275:15358   */\n      or\n        /* \"#utility.yul\":15252:15391   */\n      tag_345\n      jumpi\n        /* \"#utility.yul\":15371:15389   */\n      tag_346\n      tag_199\n      jump\t// in\n    tag_346:\n        /* \"#utility.yul\":15252:15391   */\n    tag_345:\n        /* \"#utility.yul\":15036:15398   */\n      pop\n        /* \"#utility.yul\":14988:15398   */\n      swap3\n      swap2\n      pop\n      pop\n      jump\t// out\n        /* \"#utility.yul\":15404:15595   */\n    tag_117:\n        /* \"#utility.yul\":15444:15447   */\n      0x00\n        /* \"#utility.yul\":15463:15483   */\n      tag_348\n        /* \"#utility.yul\":15481:15482   */\n      dup3\n        /* \"#utility.yul\":15463:15483   */\n      tag_165\n      jump\t// in\n    tag_348:\n        /* \"#utility.yul\":15458:15483   */\n      swap2\n      pop\n        /* \"#utility.yul\":15497:15517   */\n      tag_349\n        /* \"#utility.yul\":15515:15516   */\n      dup4\n        /* \"#utility.yul\":15497:15517   */\n      tag_165\n      jump\t// in\n    tag_349:\n        /* \"#utility.yul\":15492:15517   */\n      swap3\n      pop\n        /* \"#utility.yul\":15540:15541   */\n      dup3\n        /* \"#utility.yul\":15537:15538   */\n      dup3\n        /* \"#utility.yul\":15533:15542   */\n      add\n        /* \"#utility.yul\":15526:15542   */\n      swap1\n      pop\n        /* \"#utility.yul\":15561:15564   */\n      dup1\n        /* \"#utility.yul\":15558:15559   */\n      dup3\n        /* \"#utility.yul\":15555:15565   */\n      gt\n        /* \"#utility.yul\":15552:15588   */\n      iszero\n      tag_350\n      jumpi\n        /* \"#utility.yul\":15568:15586   */\n      tag_351\n      tag_199\n      jump\t// in\n    tag_351:\n        /* \"#utility.yul\":15552:15588   */\n    tag_350:\n        /* \"#utility.yul\":15404:15595   */\n      swap3\n      swap2\n      pop\n      pop\n      jump\t// out\n        /* \"#utility.yul\":15601:15718   */\n    tag_200:\n        /* \"#utility.yul\":15710:15711   */\n      0x00\n        /* \"#utility.yul\":15707:15708   */\n      dup1\n        /* \"#utility.yul\":15700:15712   */\n      revert\n        /* \"#utility.yul\":15724:15841   */\n    tag_201:\n        /* \"#utility.yul\":15833:15834   */\n      0x00\n        /* \"#utility.yul\":15830:15831   */\n      dup1\n        /* \"#utility.yul\":15823:15835   */\n      revert\n        /* \"#utility.yul\":15847:16027   */\n    tag_202:\n        /* \"#utility.yul\":15895:15972   */\n      0x4e487b7100000000000000000000000000000000000000000000000000000000\n        /* \"#utility.yul\":15892:15893   */\n      0x00\n        /* \"#utility.yul\":15885:15973   */\n      mstore\n        /* \"#utility.yul\":15992:15996   */\n      0x41\n        /* \"#utility.yul\":15989:15990   */\n      0x04\n        /* \"#utility.yul\":15982:15997   */\n      mstore\n        /* \"#utility.yul\":16016:16020   */\n      0x24\n        /* \"#utility.yul\":16013:16014   */\n      0x00\n        /* \"#utility.yul\":16006:16021   */\n      revert\n        /* \"#utility.yul\":16033:16314   */\n    tag_203:\n        /* \"#utility.yul\":16116:16143   */\n      tag_356\n        /* \"#utility.yul\":16138:16142   */\n      dup3\n        /* \"#utility.yul\":16116:16143   */\n      tag_176\n      jump\t// in\n    tag_356:\n        /* \"#utility.yul\":16108:16114   */\n      dup2\n        /* \"#utility.yul\":16104:16144   */\n      add\n        /* \"#utility.yul\":16246:16252   */\n      dup2\n        /* \"#utility.yul\":16234:16244   */\n      dup2\n        /* \"#utility.yul\":16231:16253   */\n      lt\n        /* \"#utility.yul\":16210:16228   */\n      0xffffffffffffffff\n        /* \"#utility.yul\":16198:16208   */\n      dup3\n        /* \"#utility.yul\":16195:16229   */\n      gt\n        /* \"#utility.yul\":16192:16254   */\n      or\n        /* \"#utility.yul\":16189:16277   */\n      iszero\n      tag_357\n      jumpi\n        /* \"#utility.yul\":16257:16275   */\n      tag_358\n      tag_202\n      jump\t// in\n    tag_358:\n        /* \"#utility.yul\":16189:16277   */\n    tag_357:\n        /* \"#utility.yul\":16297:16307   */\n      dup1\n        /* \"#utility.yul\":16293:16295   */\n      0x40\n        /* \"#utility.yul\":16286:16308   */\n      mstore\n        /* \"#utility.yul\":16076:16314   */\n      pop\n        /* \"#utility.yul\":16033:16314   */\n      pop\n      pop\n      jump\t// out\n        /* \"#utility.yul\":16320:16449   */\n    tag_204:\n        /* \"#utility.yul\":16354:16360   */\n      0x00\n        /* \"#utility.yul\":16381:16401   */\n      tag_360\n      tag_158\n      jump\t// in\n    tag_360:\n        /* \"#utility.yul\":16371:16401   */\n      swap1\n      pop\n        /* \"#utility.yul\":16410:16443   */\n      tag_361\n        /* \"#utility.yul\":16438:16442   */\n      dup3\n        /* \"#utility.yul\":16430:16436   */\n      dup3\n        /* \"#utility.yul\":16410:16443   */\n      tag_203\n      jump\t// in\n    tag_361:\n        /* \"#utility.yul\":16320:16449   */\n      swap2\n      swap1\n      pop\n      jump\t// out\n        /* \"#utility.yul\":16455:16763   */\n    tag_205:\n        /* \"#utility.yul\":16517:16521   */\n      0x00\n        /* \"#utility.yul\":16607:16625   */\n      0xffffffffffffffff\n        /* \"#utility.yul\":16599:16605   */\n      dup3\n        /* \"#utility.yul\":16596:16626   */\n      gt\n        /* \"#utility.yul\":16593:16649   */\n      iszero\n      tag_363\n      jumpi\n        /* \"#utility.yul\":16629:16647   */\n      tag_364\n      tag_202\n      jump\t// in\n    tag_364:\n        /* \"#utility.yul\":16593:16649   */\n    tag_363:\n        /* \"#utility.yul\":16667:16696   */\n      tag_365\n        /* \"#utility.yul\":16689:16695   */\n      dup3\n        /* \"#utility.yul\":16667:16696   */\n      tag_176\n      jump\t// in\n    tag_365:\n        /* \"#utility.yul\":16659:16696   */\n      swap1\n      pop\n        /* \"#utility.yul\":16751:16755   */\n      0x20\n        /* \"#utility.yul\":16745:16749   */\n      dup2\n        /* \"#utility.yul\":16741:16756   */\n      add\n        /* \"#utility.yul\":16733:16756   */\n      swap1\n      pop\n        /* \"#utility.yul\":16455:16763   */\n      swap2\n      swap1\n      pop\n      jump\t// out\n        /* \"#utility.yul\":16769:17203   */\n    tag_206:\n        /* \"#utility.yul\":16858:16863   */\n      0x00\n        /* \"#utility.yul\":16883:16949   */\n      tag_367\n        /* \"#utility.yul\":16899:16948   */\n      tag_368\n        /* \"#utility.yul\":16941:16947   */\n      dup5\n        /* \"#utility.yul\":16899:16948   */\n      tag_205\n      jump\t// in\n    tag_368:\n        /* \"#utility.yul\":16883:16949   */\n      tag_204\n      jump\t// in\n    tag_367:\n        /* \"#utility.yul\":16874:16949   */\n      swap1\n      pop\n        /* \"#utility.yul\":16972:16978   */\n      dup3\n        /* \"#utility.yul\":16965:16970   */\n      dup2\n        /* \"#utility.yul\":16958:16979   */\n      mstore\n        /* \"#utility.yul\":17010:17014   */\n      0x20\n        /* \"#utility.yul\":17003:17008   */\n      dup2\n        /* \"#utility.yul\":16999:17015   */\n      add\n        /* \"#utility.yul\":17048:17051   */\n      dup5\n        /* \"#utility.yul\":17039:17045   */\n      dup5\n        /* \"#utility.yul\":17034:17037   */\n      dup5\n        /* \"#utility.yul\":17030:17046   */\n      add\n        /* \"#utility.yul\":17027:17052   */\n      gt\n        /* \"#utility.yul\":17024:17136   */\n      iszero\n      tag_369\n      jumpi\n        /* \"#utility.yul\":17055:17134   */\n      tag_370\n      tag_201\n      jump\t// in\n    tag_370:\n        /* \"#utility.yul\":17024:17136   */\n    tag_369:\n        /* \"#utility.yul\":17145:17197   */\n      tag_371\n        /* \"#utility.yul\":17190:17196   */\n      dup5\n        /* \"#utility.yul\":17185:17188   */\n      dup3\n        /* \"#utility.yul\":17180:17183   */\n      dup6\n        /* \"#utility.yul\":17145:17197   */\n      tag_175\n      jump\t// in\n    tag_371:\n        /* \"#utility.yul\":16864:17203   */\n      pop\n        /* \"#utility.yul\":16769:17203   */\n      swap4\n      swap3\n      pop\n      pop\n      pop\n      jump\t// out\n        /* \"#utility.yul\":17223:17578   */\n    tag_207:\n        /* \"#utility.yul\":17290:17295   */\n      0x00\n        /* \"#utility.yul\":17339:17342   */\n      dup3\n        /* \"#utility.yul\":17332:17336   */\n      0x1f\n        /* \"#utility.yul\":17324:17330   */\n      dup4\n        /* \"#utility.yul\":17320:17337   */\n      add\n        /* \"#utility.yul\":17316:17343   */\n      slt\n        /* \"#utility.yul\":17306:17428   */\n      tag_373\n      jumpi\n        /* \"#utility.yul\":17347:17426   */\n      tag_374\n      tag_200\n      jump\t// in\n    tag_374:\n        /* \"#utility.yul\":17306:17428   */\n    tag_373:\n        /* \"#utility.yul\":17457:17463   */\n      dup2\n        /* \"#utility.yul\":17451:17464   */\n      mload\n        /* \"#utility.yul\":17482:17572   */\n      tag_375\n        /* \"#utility.yul\":17568:17571   */\n      dup5\n        /* \"#utility.yul\":17560:17566   */\n      dup3\n        /* \"#utility.yul\":17553:17557   */\n      0x20\n        /* \"#utility.yul\":17545:17551   */\n      dup7\n        /* \"#utility.yul\":17541:17558   */\n      add\n        /* \"#utility.yul\":17482:17572   */\n      tag_206\n      jump\t// in\n    tag_375:\n        /* \"#utility.yul\":17473:17572   */\n      swap2\n      pop\n        /* \"#utility.yul\":17296:17578   */\n      pop\n        /* \"#utility.yul\":17223:17578   */\n      swap3\n      swap2\n      pop\n      pop\n      jump\t// out\n        /* \"#utility.yul\":17584:18108   */\n    tag_139:\n        /* \"#utility.yul\":17664:17670   */\n      0x00\n        /* \"#utility.yul\":17713:17715   */\n      0x20\n        /* \"#utility.yul\":17701:17710   */\n      dup3\n        /* \"#utility.yul\":17692:17699   */\n      dup5\n        /* \"#utility.yul\":17688:17711   */\n      sub\n        /* \"#utility.yul\":17684:17716   */\n      slt\n        /* \"#utility.yul\":17681:17800   */\n      iszero\n      tag_377\n      jumpi\n        /* \"#utility.yul\":17719:17798   */\n      tag_378\n      tag_159\n      jump\t// in\n    tag_378:\n        /* \"#utility.yul\":17681:17800   */\n    tag_377:\n        /* \"#utility.yul\":17860:17861   */\n      0x00\n        /* \"#utility.yul\":17849:17858   */\n      dup3\n        /* \"#utility.yul\":17845:17862   */\n      add\n        /* \"#utility.yul\":17839:17863   */\n      mload\n        /* \"#utility.yul\":17890:17908   */\n      0xffffffffffffffff\n        /* \"#utility.yul\":17882:17888   */\n      dup2\n        /* \"#utility.yul\":17879:17909   */\n      gt\n        /* \"#utility.yul\":17876:17993   */\n      iszero\n      tag_379\n      jumpi\n        /* \"#utility.yul\":17912:17991   */\n      tag_380\n      tag_160\n      jump\t// in\n    tag_380:\n        /* \"#utility.yul\":17876:17993   */\n    tag_379:\n        /* \"#utility.yul\":18017:18091   */\n      tag_381\n        /* \"#utility.yul\":18083:18090   */\n      dup5\n        /* \"#utility.yul\":18074:18080   */\n      dup3\n        /* \"#utility.yul\":18063:18072   */\n      dup6\n        /* \"#utility.yul\":18059:18081   */\n      add\n        /* \"#utility.yul\":18017:18091   */\n      tag_207\n      jump\t// in\n    tag_381:\n        /* \"#utility.yul\":18007:18091   */\n      swap2\n      pop\n        /* \"#utility.yul\":17810:18101   */\n      pop\n        /* \"#utility.yul\":17584:18108   */\n      swap3\n      swap2\n      pop\n      pop\n      jump\t// out\n        /* \"#utility.yul\":18114:18294   */\n    tag_208:\n        /* \"#utility.yul\":18162:18239   */\n      0x4e487b7100000000000000000000000000000000000000000000000000000000\n        /* \"#utility.yul\":18159:18160   */\n      0x00\n        /* \"#utility.yul\":18152:18240   */\n      mstore\n        /* \"#utility.yul\":18259:18263   */\n      0x12\n        /* \"#utility.yul\":18256:18257   */\n      0x04\n        /* \"#utility.yul\":18249:18264   */\n      mstore\n        /* \"#utility.yul\":18283:18287   */\n      0x24\n        /* \"#utility.yul\":18280:18281   */\n      0x00\n        /* \"#utility.yul\":18273:18288   */\n      revert\n        /* \"#utility.yul\":18300:18485   */\n    tag_154:\n        /* \"#utility.yul\":18340:18341   */\n      0x00\n        /* \"#utility.yul\":18357:18377   */\n      tag_384\n        /* \"#utility.yul\":18375:18376   */\n      dup3\n        /* \"#utility.yul\":18357:18377   */\n      tag_165\n      jump\t// in\n    tag_384:\n        /* \"#utility.yul\":18352:18377   */\n      swap2\n      pop\n        /* \"#utility.yul\":18391:18411   */\n      tag_385\n        /* \"#utility.yul\":18409:18410   */\n      dup4\n        /* \"#utility.yul\":18391:18411   */\n      tag_165\n      jump\t// in\n    tag_385:\n        /* \"#utility.yul\":18386:18411   */\n      swap3\n      pop\n        /* \"#utility.yul\":18430:18431   */\n      dup3\n        /* \"#utility.yul\":18420:18455   */\n      tag_386\n      jumpi\n        /* \"#utility.yul\":18435:18453   */\n      tag_387\n      tag_208\n      jump\t// in\n    tag_387:\n        /* \"#utility.yul\":18420:18455   */\n    tag_386:\n        /* \"#utility.yul\":18477:18478   */\n      dup3\n        /* \"#utility.yul\":18474:18475   */\n      dup3\n        /* \"#utility.yul\":18470:18479   */\n      div\n        /* \"#utility.yul\":18465:18479   */\n      swap1\n      pop\n        /* \"#utility.yul\":18300:18485   */\n      swap3\n      swap2\n      pop\n      pop\n      jump\t// out\n        /* \"#utility.yul\":18491:18664   */\n    tag_209:\n        /* \"#utility.yul\":18631:18656   */\n      0x4d756c7469706c69636174696f6e206f766572666c6f77000000000000000000\n        /* \"#utility.yul\":18627:18628   */\n      0x00\n        /* \"#utility.yul\":18619:18625   */\n      dup3\n        /* \"#utility.yul\":18615:18629   */\n      add\n        /* \"#utility.yul\":18608:18657   */\n      mstore\n        /* \"#utility.yul\":18491:18664   */\n      pop\n      jump\t// out\n        /* \"#utility.yul\":18670:19036   */\n    tag_210:\n        /* \"#utility.yul\":18812:18815   */\n      0x00\n        /* \"#utility.yul\":18833:18900   */\n      tag_390\n        /* \"#utility.yul\":18897:18899   */\n      0x17\n        /* \"#utility.yul\":18892:18895   */\n      dup4\n        /* \"#utility.yul\":18833:18900   */\n      tag_174\n      jump\t// in\n    tag_390:\n        /* \"#utility.yul\":18826:18900   */\n      swap2\n      pop\n        /* \"#utility.yul\":18909:19002   */\n      tag_391\n        /* \"#utility.yul\":18998:19001   */\n      dup3\n        /* \"#utility.yul\":18909:19002   */\n      tag_209\n      jump\t// in\n    tag_391:\n        /* \"#utility.yul\":19027:19029   */\n      0x20\n        /* \"#utility.yul\":19022:19025   */\n      dup3\n        /* \"#utility.yul\":19018:19030   */\n      add\n        /* \"#utility.yul\":19011:19030   */\n      swap1\n      pop\n        /* \"#utility.yul\":18670:19036   */\n      swap2\n      swap1\n      pop\n      jump\t// out\n        /* \"#utility.yul\":19042:19461   */\n    tag_157:\n        /* \"#utility.yul\":19208:19212   */\n      0x00\n        /* \"#utility.yul\":19246:19248   */\n      0x20\n        /* \"#utility.yul\":19235:19244   */\n      dup3\n        /* \"#utility.yul\":19231:19249   */\n      add\n        /* \"#utility.yul\":19223:19249   */\n      swap1\n      pop\n        /* \"#utility.yul\":19295:19304   */\n      dup2\n        /* \"#utility.yul\":19289:19293   */\n      dup2\n        /* \"#utility.yul\":19285:19305   */\n      sub\n        /* \"#utility.yul\":19281:19282   */\n      0x00\n        /* \"#utility.yul\":19270:19279   */\n      dup4\n        /* \"#utility.yul\":19266:19283   */\n      add\n        /* \"#utility.yul\":19259:19306   */\n      mstore\n        /* \"#utility.yul\":19323:19454   */\n      tag_393\n        /* \"#utility.yul\":19449:19453   */\n      dup2\n        /* \"#utility.yul\":19323:19454   */\n      tag_210\n      jump\t// in\n    tag_393:\n        /* \"#utility.yul\":19315:19454   */\n      swap1\n      pop\n        /* \"#utility.yul\":19042:19461   */\n      swap2\n      swap1\n      pop\n      jump\t// out\n\n    auxdata: 0xa264697066735822122057f868cf5b003d7dad7117d76dd54c61f2bd8c713eff4fe01481a84722a0384464736f6c634300081a0033\n}\n",
				"bytecode": {
					"linkReferences": {},
					"object": "6080604052348015600e575f80fd5b50335f806101000a81548173ffffffffffffffffffffffffffffffffffffffff021916908373ffffffffffffffffffffffffffffffffffffffff16021790555061169f8061005b5f395ff3fe60806040526004361061009b575f3560e01c80637ad3def2116100635780637ad3def21461013f57806387c1ed12146101675780638da5cb5b146101835780639d76ea58146101ad578063e86790eb146101d7578063ff332ab7146102015761009b565b806305b1137b1461009f578063280da6fa146100bb5780633610724e146100d15780635ed9ebfc146100ed578063676c0d7714610117575b5f80fd5b6100b960048036038101906100b49190610d85565b61022f565b005b3480156100c6575f80fd5b506100cf61031f565b005b6100eb60048036038101906100e69190610dc3565b61056b565b005b3480156100f8575f80fd5b506101016107ac565b60405161010e9190610dfd565b60405180910390f35b348015610122575f80fd5b5061013d60048036038101906101389190610dc3565b6107b2565b005b34801561014a575f80fd5b5061016560048036038101906101609190610e51565b610849565b005b610181600480360381019061017c9190610dc3565b610919565b005b34801561018e575f80fd5b50610197610a28565b6040516101a49190610e8b565b60405180910390f35b3480156101b8575f80fd5b506101c1610a4b565b6040516101ce9190610e8b565b60405180910390f35b3480156101e2575f80fd5b506101eb610a70565b6040516101f89190610dfd565b60405180910390f35b34801561020c575f80fd5b50610215610a76565b604051610226959493929190610f14565b60405180910390f35b80341015610272576040517f08c379a000000000000000000000000000000000000000000000000000000000815260040161026990610fbd565b60405180910390fd5b5f8273ffffffffffffffffffffffffffffffffffffffff168260405161029790611008565b5f6040518083038185875af1925050503d805f81146102d1576040519150601f19603f3d011682016040523d82523d5f602084013e6102d6565b606091505b505090508061031a576040517f08c379a000000000000000000000000000000000000000000000000000000000815260040161031190611066565b60405180910390fd5b505050565b5f8054906101000a900473ffffffffffffffffffffffffffffffffffffffff1673ffffffffffffffffffffffffffffffffffffffff163373ffffffffffffffffffffffffffffffffffffffff16146103ac576040517f08c379a00000000000000000000000000000000000000000000000000000000081526004016103a3906110f4565b60405180910390fd5b5f60015f9054906101000a900473ffffffffffffffffffffffffffffffffffffffff1690505f8173ffffffffffffffffffffffffffffffffffffffff166370a08231306040518263ffffffff1660e01b815260040161040b9190610e8b565b602060405180830381865afa158015610426573d5f803e3d5ffd5b505050506040513d601f19601f8201168201806040525081019061044a9190611126565b90505f811161048e576040517f08c379a00000000000000000000000000000000000000000000000000000000081526004016104859061119b565b60405180910390fd5b8173ffffffffffffffffffffffffffffffffffffffff1663a9059cbb5f8054906101000a900473ffffffffffffffffffffffffffffffffffffffff16836040518363ffffffff1660e01b81526004016104e89291906111b9565b6020604051808303815f875af1158015610504573d5f803e3d5ffd5b505050506040513d601f19601f820116820180604052508101906105289190611215565b610567576040517f08c379a000000000000000000000000000000000000000000000000000000000815260040161055e9061128a565b60405180910390fd5b5050565b61057781600254610c7b565b34146105b8576040517f08c379a00000000000000000000000000000000000000000000000000000000081526004016105af90611318565b60405180910390fd5b5f60015f9054906101000a900473ffffffffffffffffffffffffffffffffffffffff1690508073ffffffffffffffffffffffffffffffffffffffff166370a08231306040518263ffffffff1660e01b81526004016106169190610e8b565b602060405180830381865afa158015610631573d5f803e3d5ffd5b505050506040513d601f19601f820116820180604052508101906106559190611126565b821115610697576040517f08c379a000000000000000000000000000000000000000000000000000000000815260040161068e90611380565b60405180910390fd5b8073ffffffffffffffffffffffffffffffffffffffff1663a9059cbb33670de0b6b3a7640000856106c891906113cb565b6040518363ffffffff1660e01b81526004016106e59291906111b9565b6020604051808303815f875af1158015610701573d5f803e3d5ffd5b505050506040513d601f19601f820116820180604052508101906107259190611215565b61072d575f80fd5b5f8054906101000a900473ffffffffffffffffffffffffffffffffffffffff1673ffffffffffffffffffffffffffffffffffffffff166108fc3490811502906040515f60405180830381858888f1935050505015801561078f573d5f803e3d5ffd5b508160035f8282546107a1919061140c565b925050819055505050565b60035481565b5f8054906101000a900473ffffffffffffffffffffffffffffffffffffffff1673ffffffffffffffffffffffffffffffffffffffff163373ffffffffffffffffffffffffffffffffffffffff161461083f576040517f08c379a0000000000000000000000000000000000000000000000000000000008152600401610836906110f4565b60405180910390fd5b8060028190555050565b5f8054906101000a900473ffffffffffffffffffffffffffffffffffffffff1673ffffffffffffffffffffffffffffffffffffffff163373ffffffffffffffffffffffffffffffffffffffff16146108d6576040517f08c379a00000000000000000000000000000000000000000000000000000000081526004016108cd906110f4565b60405180910390fd5b8060015f6101000a81548173ffffffffffffffffffffffffffffffffffffffff021916908373ffffffffffffffffffffffffffffffffffffffff16021790555050565b5f34101561095c576040517f08c379a000000000000000000000000000000000000000000000000000000000815260040161095390610fbd565b60405180910390fd5b5f805f9054906101000a900473ffffffffffffffffffffffffffffffffffffffff1673ffffffffffffffffffffffffffffffffffffffff16826040516109a190611008565b5f6040518083038185875af1925050503d805f81146109db576040519150601f19603f3d011682016040523d82523d5f602084013e6109e0565b606091505b5050905080610a24576040517f08c379a0000000000000000000000000000000000000000000000000000000008152600401610a1b90611066565b60405180910390fd5b5050565b5f8054906101000a900473ffffffffffffffffffffffffffffffffffffffff1681565b60015f9054906101000a900473ffffffffffffffffffffffffffffffffffffffff1681565b60025481565b6060805f805f8060015f9054906101000a900473ffffffffffffffffffffffffffffffffffffffff1690508073ffffffffffffffffffffffffffffffffffffffff166306fdde036040518163ffffffff1660e01b81526004015f60405180830381865afa158015610ae9573d5f803e3d5ffd5b505050506040513d5f823e3d601f19601f82011682018060405250810190610b11919061155d565b8173ffffffffffffffffffffffffffffffffffffffff166395d89b416040518163ffffffff1660e01b81526004015f60405180830381865afa158015610b59573d5f803e3d5ffd5b505050506040513d5f823e3d601f19601f82011682018060405250810190610b81919061155d565b8273ffffffffffffffffffffffffffffffffffffffff166370a08231306040518263ffffffff1660e01b8152600401610bba9190610e8b565b602060405180830381865afa158015610bd5573d5f803e3d5ffd5b505050506040513d601f19601f82011682018060405250810190610bf99190611126565b8373ffffffffffffffffffffffffffffffffffffffff166318160ddd6040518163ffffffff1660e01b8152600401602060405180830381865afa158015610c42573d5f803e3d5ffd5b505050506040513d601f19601f82011682018060405250810190610c669190611126565b60025495509550955095509550509091929394565b5f80821480610ca2575082828385610c9391906113cb565b925082610ca091906115d1565b145b610ce1576040517f08c379a0000000000000000000000000000000000000000000000000000000008152600401610cd89061164b565b60405180910390fd5b92915050565b5f604051905090565b5f80fd5b5f80fd5b5f73ffffffffffffffffffffffffffffffffffffffff82169050919050565b5f610d2182610cf8565b9050919050565b610d3181610d17565b8114610d3b575f80fd5b50565b5f81359050610d4c81610d28565b92915050565b5f819050919050565b610d6481610d52565b8114610d6e575f80fd5b50565b5f81359050610d7f81610d5b565b92915050565b5f8060408385031215610d9b57610d9a610cf0565b5b5f610da885828601610d3e565b9250506020610db985828601610d71565b9150509250929050565b5f60208284031215610dd857610dd7610cf0565b5b5f610de584828501610d71565b91505092915050565b610df781610d52565b82525050565b5f602082019050610e105f830184610dee565b92915050565b5f610e2082610cf8565b9050919050565b610e3081610e16565b8114610e3a575f80fd5b50565b5f81359050610e4b81610e27565b92915050565b5f60208284031215610e6657610e65610cf0565b5b5f610e7384828501610e3d565b91505092915050565b610e8581610e16565b82525050565b5f602082019050610e9e5f830184610e7c565b92915050565b5f81519050919050565b5f82825260208201905092915050565b8281835e5f83830152505050565b5f601f19601f8301169050919050565b5f610ee682610ea4565b610ef08185610eae565b9350610f00818560208601610ebe565b610f0981610ecc565b840191505092915050565b5f60a0820190508181035f830152610f2c8188610edc565b90508181036020830152610f408187610edc565b9050610f4f6040830186610dee565b610f5c6060830185610dee565b610f696080830184610dee565b9695505050505050565b7f496e73756666696369656e742066756e64732073656e740000000000000000005f82015250565b5f610fa7601783610eae565b9150610fb282610f73565b602082019050919050565b5f6020820190508181035f830152610fd481610f9b565b9050919050565b5f81905092915050565b50565b5f610ff35f83610fdb565b9150610ffe82610fe5565b5f82019050919050565b5f61101282610fe8565b9150819050919050565b7f5472616e73666572206661696c656400000000000000000000000000000000005f82015250565b5f611050600f83610eae565b915061105b8261101c565b602082019050919050565b5f6020820190508181035f83015261107d81611044565b9050919050565b7f4f6e6c79206f776e65722063616e2063616c6c20746869732066756e6374696f5f8201527f6e00000000000000000000000000000000000000000000000000000000000000602082015250565b5f6110de602183610eae565b91506110e982611084565b604082019050919050565b5f6020820190508181035f83015261110b816110d2565b9050919050565b5f8151905061112081610d5b565b92915050565b5f6020828403121561113b5761113a610cf0565b5b5f61114884828501611112565b91505092915050565b7f4e6f20746f6b656e7320746f20776974686472617700000000000000000000005f82015250565b5f611185601583610eae565b915061119082611151565b602082019050919050565b5f6020820190508181035f8301526111b281611179565b9050919050565b5f6040820190506111cc5f830185610e7c565b6111d96020830184610dee565b9392505050565b5f8115159050919050565b6111f4816111e0565b81146111fe575f80fd5b50565b5f8151905061120f816111eb565b92915050565b5f6020828403121561122a57611229610cf0565b5b5f61123784828501611201565b91505092915050565b7f5769746864726177616c206661696c65640000000000000000000000000000005f82015250565b5f611274601183610eae565b915061127f82611240565b602082019050919050565b5f6020820190508181035f8301526112a181611268565b9050919050565b7f496e73756666696369656e742045746865722050726f766964656420666f72205f8201527f74686520746f6b656e2070757263686173650000000000000000000000000000602082015250565b5f611302603283610eae565b915061130d826112a8565b604082019050919050565b5f6020820190508181035f83015261132f816112f6565b9050919050565b7f4e6f7420656e6f75676820746f6b656e206c65667420666f722073616c6500005f82015250565b5f61136a601e83610eae565b915061137582611336565b602082019050919050565b5f6020820190508181035f8301526113978161135e565b9050919050565b7f4e487b71000000000000000000000000000000000000000000000000000000005f52601160045260245ffd5b5f6113d582610d52565b91506113e083610d52565b92508282026113ee81610d52565b915082820484148315176114055761140461139e565b5b5092915050565b5f61141682610d52565b915061142183610d52565b92508282019050808211156114395761143861139e565b5b92915050565b5f80fd5b5f80fd5b7f4e487b71000000000000000000000000000000000000000000000000000000005f52604160045260245ffd5b61147d82610ecc565b810181811067ffffffffffffffff8211171561149c5761149b611447565b5b80604052505050565b5f6114ae610ce7565b90506114ba8282611474565b919050565b5f67ffffffffffffffff8211156114d9576114d8611447565b5b6114e282610ecc565b9050602081019050919050565b5f6115016114fc846114bf565b6114a5565b90508281526020810184848401111561151d5761151c611443565b5b611528848285610ebe565b509392505050565b5f82601f8301126115445761154361143f565b5b81516115548482602086016114ef565b91505092915050565b5f6020828403121561157257611571610cf0565b5b5f82015167ffffffffffffffff81111561158f5761158e610cf4565b5b61159b84828501611530565b91505092915050565b7f4e487b71000000000000000000000000000000000000000000000000000000005f52601260045260245ffd5b5f6115db82610d52565b91506115e683610d52565b9250826115f6576115f56115a4565b5b828204905092915050565b7f4d756c7469706c69636174696f6e206f766572666c6f770000000000000000005f82015250565b5f611635601783610eae565b915061164082611601565b602082019050919050565b5f6020820190508181035f83015261166281611629565b905091905056fea264697066735822122057f868cf5b003d7dad7117d76dd54c61f2bd8c713eff4fe01481a84722a0384464736f6c634300081a0033",
					"opcodes": "PUSH1 0x80 PUSH1 0x40 MSTORE CALLVALUE DUP1 ISZERO PUSH1 0xE JUMPI PUSH0 DUP1 REVERT JUMPDEST POP CALLER PUSH0 DUP1 PUSH2 0x100 EXP DUP2 SLOAD DUP2 PUSH20 0xFFFFFFFFFFFFFFFFFFFFFFFFFFFFFFFFFFFFFFFF MUL NOT AND SWAP1 DUP4 PUSH20 0xFFFFFFFFFFFFFFFFFFFFFFFFFFFFFFFFFFFFFFFF AND MUL OR SWAP1 SSTORE POP PUSH2 0x169F DUP1 PUSH2 0x5B PUSH0 CODECOPY PUSH0 RETURN INVALID PUSH1 0x80 PUSH1 0x40 MSTORE PUSH1 0x4 CALLDATASIZE LT PUSH2 0x9B JUMPI PUSH0 CALLDATALOAD PUSH1 0xE0 SHR DUP1 PUSH4 0x7AD3DEF2 GT PUSH2 0x63 JUMPI DUP1 PUSH4 0x7AD3DEF2 EQ PUSH2 0x13F JUMPI DUP1 PUSH4 0x87C1ED12 EQ PUSH2 0x167 JUMPI DUP1 PUSH4 0x8DA5CB5B EQ PUSH2 0x183 JUMPI DUP1 PUSH4 0x9D76EA58 EQ PUSH2 0x1AD JUMPI DUP1 PUSH4 0xE86790EB EQ PUSH2 0x1D7 JUMPI DUP1 PUSH4 0xFF332AB7 EQ PUSH2 0x201 JUMPI PUSH2 0x9B JUMP JUMPDEST DUP1 PUSH4 0x5B1137B EQ PUSH2 0x9F JUMPI DUP1 PUSH4 0x280DA6FA EQ PUSH2 0xBB JUMPI DUP1 PUSH4 0x3610724E EQ PUSH2 0xD1 JUMPI DUP1 PUSH4 0x5ED9EBFC EQ PUSH2 0xED JUMPI DUP1 PUSH4 0x676C0D77 EQ PUSH2 0x117 JUMPI JUMPDEST PUSH0 DUP1 REVERT JUMPDEST PUSH2 0xB9 PUSH1 0x4 DUP1 CALLDATASIZE SUB DUP2 ADD SWAP1 PUSH2 0xB4 SWAP2 SWAP1 PUSH2 0xD85 JUMP JUMPDEST PUSH2 0x22F JUMP JUMPDEST STOP JUMPDEST CALLVALUE DUP1 ISZERO PUSH2 0xC6 JUMPI PUSH0 DUP1 REVERT JUMPDEST POP PUSH2 0xCF PUSH2 0x31F JUMP JUMPDEST STOP JUMPDEST PUSH2 0xEB PUSH1 0x4 DUP1 CALLDATASIZE SUB DUP2 ADD SWAP1 PUSH2 0xE6 SWAP2 SWAP1 PUSH2 0xDC3 JUMP JUMPDEST PUSH2 0x56B JUMP JUMPDEST STOP JUMPDEST CALLVALUE DUP1 ISZERO PUSH2 0xF8 JUMPI PUSH0 DUP1 REVERT JUMPDEST POP PUSH2 0x101 PUSH2 0x7AC JUMP JUMPDEST PUSH1 0x40 MLOAD PUSH2 0x10E SWAP2 SWAP1 PUSH2 0xDFD JUMP JUMPDEST PUSH1 0x40 MLOAD DUP1 SWAP2 SUB SWAP1 RETURN JUMPDEST CALLVALUE DUP1 ISZERO PUSH2 0x122 JUMPI PUSH0 DUP1 REVERT JUMPDEST POP PUSH2 0x13D PUSH1 0x4 DUP1 CALLDATASIZE SUB DUP2 ADD SWAP1 PUSH2 0x138 SWAP2 SWAP1 PUSH2 0xDC3 JUMP JUMPDEST PUSH2 0x7B2 JUMP JUMPDEST STOP JUMPDEST CALLVALUE DUP1 ISZERO PUSH2 0x14A JUMPI PUSH0 DUP1 REVERT JUMPDEST POP PUSH2 0x165 PUSH1 0x4 DUP1 CALLDATASIZE SUB DUP2 ADD SWAP1 PUSH2 0x160 SWAP2 SWAP1 PUSH2 0xE51 JUMP JUMPDEST PUSH2 0x849 JUMP JUMPDEST STOP JUMPDEST PUSH2 0x181 PUSH1 0x4 DUP1 CALLDATASIZE SUB DUP2 ADD SWAP1 PUSH2 0x17C SWAP2 SWAP1 PUSH2 0xDC3 JUMP JUMPDEST PUSH2 0x919 JUMP JUMPDEST STOP JUMPDEST CALLVALUE DUP1 ISZERO PUSH2 0x18E JUMPI PUSH0 DUP1 REVERT JUMPDEST POP PUSH2 0x197 PUSH2 0xA28 JUMP JUMPDEST PUSH1 0x40 MLOAD PUSH2 0x1A4 SWAP2 SWAP1 PUSH2 0xE8B JUMP JUMPDEST PUSH1 0x40 MLOAD DUP1 SWAP2 SUB SWAP1 RETURN JUMPDEST CALLVALUE DUP1 ISZERO PUSH2 0x1B8 JUMPI PUSH0 DUP1 REVERT JUMPDEST POP PUSH2 0x1C1 PUSH2 0xA4B JUMP JUMPDEST PUSH1 0x40 MLOAD PUSH2 0x1CE SWAP2 SWAP1 PUSH2 0xE8B JUMP JUMPDEST PUSH1 0x40 MLOAD DUP1 SWAP2 SUB SWAP1 RETURN JUMPDEST CALLVALUE DUP1 ISZERO PUSH2 0x1E2 JUMPI PUSH0 DUP1 REVERT JUMPDEST POP PUSH2 0x1EB PUSH2 0xA70 JUMP JUMPDEST PUSH1 0x40 MLOAD PUSH2 0x1F8 SWAP2 SWAP1 PUSH2 0xDFD JUMP JUMPDEST PUSH1 0x40 MLOAD DUP1 SWAP2 SUB SWAP1 RETURN JUMPDEST CALLVALUE DUP1 ISZERO PUSH2 0x20C JUMPI PUSH0 DUP1 REVERT JUMPDEST POP PUSH2 0x215 PUSH2 0xA76 JUMP JUMPDEST PUSH1 0x40 MLOAD PUSH2 0x226 SWAP6 SWAP5 SWAP4 SWAP3 SWAP2 SWAP1 PUSH2 0xF14 JUMP JUMPDEST PUSH1 0x40 MLOAD DUP1 SWAP2 SUB SWAP1 RETURN JUMPDEST DUP1 CALLVALUE LT ISZERO PUSH2 0x272 JUMPI PUSH1 0x40 MLOAD PUSH32 0x8C379A000000000000000000000000000000000000000000000000000000000 DUP2 MSTORE PUSH1 0x4 ADD PUSH2 0x269 SWAP1 PUSH2 0xFBD JUMP JUMPDEST PUSH1 0x40 MLOAD DUP1 SWAP2 SUB SWAP1 REVERT JUMPDEST PUSH0 DUP3 PUSH20 0xFFFFFFFFFFFFFFFFFFFFFFFFFFFFFFFFFFFFFFFF AND DUP3 PUSH1 0x40 MLOAD PUSH2 0x297 SWAP1 PUSH2 0x1008 JUMP JUMPDEST PUSH0 PUSH1 0x40 MLOAD DUP1 DUP4 SUB DUP2 DUP6 DUP8 GAS CALL SWAP3 POP POP POP RETURNDATASIZE DUP1 PUSH0 DUP2 EQ PUSH2 0x2D1 JUMPI PUSH1 0x40 MLOAD SWAP2 POP PUSH1 0x1F NOT PUSH1 0x3F RETURNDATASIZE ADD AND DUP3 ADD PUSH1 0x40 MSTORE RETURNDATASIZE DUP3 MSTORE RETURNDATASIZE PUSH0 PUSH1 0x20 DUP5 ADD RETURNDATACOPY PUSH2 0x2D6 JUMP JUMPDEST PUSH1 0x60 SWAP2 POP JUMPDEST POP POP SWAP1 POP DUP1 PUSH2 0x31A JUMPI PUSH1 0x40 MLOAD PUSH32 0x8C379A000000000000000000000000000000000000000000000000000000000 DUP2 MSTORE PUSH1 0x4 ADD PUSH2 0x311 SWAP1 PUSH2 0x1066 JUMP JUMPDEST PUSH1 0x40 MLOAD DUP1 SWAP2 SUB SWAP1 REVERT JUMPDEST POP POP POP JUMP JUMPDEST PUSH0 DUP1 SLOAD SWAP1 PUSH2 0x100 EXP SWAP1 DIV PUSH20 0xFFFFFFFFFFFFFFFFFFFFFFFFFFFFFFFFFFFFFFFF AND PUSH20 0xFFFFFFFFFFFFFFFFFFFFFFFFFFFFFFFFFFFFFFFF AND CALLER PUSH20 0xFFFFFFFFFFFFFFFFFFFFFFFFFFFFFFFFFFFFFFFF AND EQ PUSH2 0x3AC JUMPI PUSH1 0x40 MLOAD PUSH32 0x8C379A000000000000000000000000000000000000000000000000000000000 DUP2 MSTORE PUSH1 0x4 ADD PUSH2 0x3A3 SWAP1 PUSH2 0x10F4 JUMP JUMPDEST PUSH1 0x40 MLOAD DUP1 SWAP2 SUB SWAP1 REVERT JUMPDEST PUSH0 PUSH1 0x1 PUSH0 SWAP1 SLOAD SWAP1 PUSH2 0x100 EXP SWAP1 DIV PUSH20 0xFFFFFFFFFFFFFFFFFFFFFFFFFFFFFFFFFFFFFFFF AND SWAP1 POP PUSH0 DUP2 PUSH20 0xFFFFFFFFFFFFFFFFFFFFFFFFFFFFFFFFFFFFFFFF AND PUSH4 0x70A08231 ADDRESS PUSH1 0x40 MLOAD DUP3 PUSH4 0xFFFFFFFF AND PUSH1 0xE0 SHL DUP2 MSTORE PUSH1 0x4 ADD PUSH2 0x40B SWAP2 SWAP1 PUSH2 0xE8B JUMP JUMPDEST PUSH1 0x20 PUSH1 0x40 MLOAD DUP1 DUP4 SUB DUP2 DUP7 GAS STATICCALL ISZERO DUP1 ISZERO PUSH2 0x426 JUMPI RETURNDATASIZE PUSH0 DUP1 RETURNDATACOPY RETURNDATASIZE PUSH0 REVERT JUMPDEST POP POP POP POP PUSH1 0x40 MLOAD RETURNDATASIZE PUSH1 0x1F NOT PUSH1 0x1F DUP3 ADD AND DUP3 ADD DUP1 PUSH1 0x40 MSTORE POP DUP2 ADD SWAP1 PUSH2 0x44A SWAP2 SWAP1 PUSH2 0x1126 JUMP JUMPDEST SWAP1 POP PUSH0 DUP2 GT PUSH2 0x48E JUMPI PUSH1 0x40 MLOAD PUSH32 0x8C379A000000000000000000000000000000000000000000000000000000000 DUP2 MSTORE PUSH1 0x4 ADD PUSH2 0x485 SWAP1 PUSH2 0x119B JUMP JUMPDEST PUSH1 0x40 MLOAD DUP1 SWAP2 SUB SWAP1 REVERT JUMPDEST DUP2 PUSH20 0xFFFFFFFFFFFFFFFFFFFFFFFFFFFFFFFFFFFFFFFF AND PUSH4 0xA9059CBB PUSH0 DUP1 SLOAD SWAP1 PUSH2 0x100 EXP SWAP1 DIV PUSH20 0xFFFFFFFFFFFFFFFFFFFFFFFFFFFFFFFFFFFFFFFF AND DUP4 PUSH1 0x40 MLOAD DUP4 PUSH4 0xFFFFFFFF AND PUSH1 0xE0 SHL DUP2 MSTORE PUSH1 0x4 ADD PUSH2 0x4E8 SWAP3 SWAP2 SWAP1 PUSH2 0x11B9 JUMP JUMPDEST PUSH1 0x20 PUSH1 0x40 MLOAD DUP1 DUP4 SUB DUP2 PUSH0 DUP8 GAS CALL ISZERO DUP1 ISZERO PUSH2 0x504 JUMPI RETURNDATASIZE PUSH0 DUP1 RETURNDATACOPY RETURNDATASIZE PUSH0 REVERT JUMPDEST POP POP POP POP PUSH1 0x40 MLOAD RETURNDATASIZE PUSH1 0x1F NOT PUSH1 0x1F DUP3 ADD AND DUP3 ADD DUP1 PUSH1 0x40 MSTORE POP DUP2 ADD SWAP1 PUSH2 0x528 SWAP2 SWAP1 PUSH2 0x1215 JUMP JUMPDEST PUSH2 0x567 JUMPI PUSH1 0x40 MLOAD PUSH32 0x8C379A000000000000000000000000000000000000000000000000000000000 DUP2 MSTORE PUSH1 0x4 ADD PUSH2 0x55E SWAP1 PUSH2 0x128A JUMP JUMPDEST PUSH1 0x40 MLOAD DUP1 SWAP2 SUB SWAP1 REVERT JUMPDEST POP POP JUMP JUMPDEST PUSH2 0x577 DUP2 PUSH1 0x2 SLOAD PUSH2 0xC7B JUMP JUMPDEST CALLVALUE EQ PUSH2 0x5B8 JUMPI PUSH1 0x40 MLOAD PUSH32 0x8C379A000000000000000000000000000000000000000000000000000000000 DUP2 MSTORE PUSH1 0x4 ADD PUSH2 0x5AF SWAP1 PUSH2 0x1318 JUMP JUMPDEST PUSH1 0x40 MLOAD DUP1 SWAP2 SUB SWAP1 REVERT JUMPDEST PUSH0 PUSH1 0x1 PUSH0 SWAP1 SLOAD SWAP1 PUSH2 0x100 EXP SWAP1 DIV PUSH20 0xFFFFFFFFFFFFFFFFFFFFFFFFFFFFFFFFFFFFFFFF AND SWAP1 POP DUP1 PUSH20 0xFFFFFFFFFFFFFFFFFFFFFFFFFFFFFFFFFFFFFFFF AND PUSH4 0x70A08231 ADDRESS PUSH1 0x40 MLOAD DUP3 PUSH4 0xFFFFFFFF AND PUSH1 0xE0 SHL DUP2 MSTORE PUSH1 0x4 ADD PUSH2 0x616 SWAP2 SWAP1 PUSH2 0xE8B JUMP JUMPDEST PUSH1 0x20 PUSH1 0x40 MLOAD DUP1 DUP4 SUB DUP2 DUP7 GAS STATICCALL ISZERO DUP1 ISZERO PUSH2 0x631 JUMPI RETURNDATASIZE PUSH0 DUP1 RETURNDATACOPY RETURNDATASIZE PUSH0 REVERT JUMPDEST POP POP POP POP PUSH1 0x40 MLOAD RETURNDATASIZE PUSH1 0x1F NOT PUSH1 0x1F DUP3 ADD AND DUP3 ADD DUP1 PUSH1 0x40 MSTORE POP DUP2 ADD SWAP1 PUSH2 0x655 SWAP2 SWAP1 PUSH2 0x1126 JUMP JUMPDEST DUP3 GT ISZERO PUSH2 0x697 JUMPI PUSH1 0x40 MLOAD PUSH32 0x8C379A000000000000000000000000000000000000000000000000000000000 DUP2 MSTORE PUSH1 0x4 ADD PUSH2 0x68E SWAP1 PUSH2 0x1380 JUMP JUMPDEST PUSH1 0x40 MLOAD DUP1 SWAP2 SUB SWAP1 REVERT JUMPDEST DUP1 PUSH20 0xFFFFFFFFFFFFFFFFFFFFFFFFFFFFFFFFFFFFFFFF AND PUSH4 0xA9059CBB CALLER PUSH8 0xDE0B6B3A7640000 DUP6 PUSH2 0x6C8 SWAP2 SWAP1 PUSH2 0x13CB JUMP JUMPDEST PUSH1 0x40 MLOAD DUP4 PUSH4 0xFFFFFFFF AND PUSH1 0xE0 SHL DUP2 MSTORE PUSH1 0x4 ADD PUSH2 0x6E5 SWAP3 SWAP2 SWAP1 PUSH2 0x11B9 JUMP JUMPDEST PUSH1 0x20 PUSH1 0x40 MLOAD DUP1 DUP4 SUB DUP2 PUSH0 DUP8 GAS CALL ISZERO DUP1 ISZERO PUSH2 0x701 JUMPI RETURNDATASIZE PUSH0 DUP1 RETURNDATACOPY RETURNDATASIZE PUSH0 REVERT JUMPDEST POP POP POP POP PUSH1 0x40 MLOAD RETURNDATASIZE PUSH1 0x1F NOT PUSH1 0x1F DUP3 ADD AND DUP3 ADD DUP1 PUSH1 0x40 MSTORE POP DUP2 ADD SWAP1 PUSH2 0x725 SWAP2 SWAP1 PUSH2 0x1215 JUMP JUMPDEST PUSH2 0x72D JUMPI PUSH0 DUP1 REVERT JUMPDEST PUSH0 DUP1 SLOAD SWAP1 PUSH2 0x100 EXP SWAP1 DIV PUSH20 0xFFFFFFFFFFFFFFFFFFFFFFFFFFFFFFFFFFFFFFFF AND PUSH20 0xFFFFFFFFFFFFFFFFFFFFFFFFFFFFFFFFFFFFFFFF AND PUSH2 0x8FC CALLVALUE SWAP1 DUP2 ISZERO MUL SWAP1 PUSH1 0x40 MLOAD PUSH0 PUSH1 0x40 MLOAD DUP1 DUP4 SUB DUP2 DUP6 DUP9 DUP9 CALL SWAP4 POP POP POP POP ISZERO DUP1 ISZERO PUSH2 0x78F JUMPI RETURNDATASIZE PUSH0 DUP1 RETURNDATACOPY RETURNDATASIZE PUSH0 REVERT JUMPDEST POP DUP2 PUSH1 0x3 PUSH0 DUP3 DUP3 SLOAD PUSH2 0x7A1 SWAP2 SWAP1 PUSH2 0x140C JUMP JUMPDEST SWAP3 POP POP DUP2 SWAP1 SSTORE POP POP POP JUMP JUMPDEST PUSH1 0x3 SLOAD DUP2 JUMP JUMPDEST PUSH0 DUP1 SLOAD SWAP1 PUSH2 0x100 EXP SWAP1 DIV PUSH20 0xFFFFFFFFFFFFFFFFFFFFFFFFFFFFFFFFFFFFFFFF AND PUSH20 0xFFFFFFFFFFFFFFFFFFFFFFFFFFFFFFFFFFFFFFFF AND CALLER PUSH20 0xFFFFFFFFFFFFFFFFFFFFFFFFFFFFFFFFFFFFFFFF AND EQ PUSH2 0x83F JUMPI PUSH1 0x40 MLOAD PUSH32 0x8C379A000000000000000000000000000000000000000000000000000000000 DUP2 MSTORE PUSH1 0x4 ADD PUSH2 0x836 SWAP1 PUSH2 0x10F4 JUMP JUMPDEST PUSH1 0x40 MLOAD DUP1 SWAP2 SUB SWAP1 REVERT JUMPDEST DUP1 PUSH1 0x2 DUP2 SWAP1 SSTORE POP POP JUMP JUMPDEST PUSH0 DUP1 SLOAD SWAP1 PUSH2 0x100 EXP SWAP1 DIV PUSH20 0xFFFFFFFFFFFFFFFFFFFFFFFFFFFFFFFFFFFFFFFF AND PUSH20 0xFFFFFFFFFFFFFFFFFFFFFFFFFFFFFFFFFFFFFFFF AND CALLER PUSH20 0xFFFFFFFFFFFFFFFFFFFFFFFFFFFFFFFFFFFFFFFF AND EQ PUSH2 0x8D6 JUMPI PUSH1 0x40 MLOAD PUSH32 0x8C379A000000000000000000000000000000000000000000000000000000000 DUP2 MSTORE PUSH1 0x4 ADD PUSH2 0x8CD SWAP1 PUSH2 0x10F4 JUMP JUMPDEST PUSH1 0x40 MLOAD DUP1 SWAP2 SUB SWAP1 REVERT JUMPDEST DUP1 PUSH1 0x1 PUSH0 PUSH2 0x100 EXP DUP2 SLOAD DUP2 PUSH20 0xFFFFFFFFFFFFFFFFFFFFFFFFFFFFFFFFFFFFFFFF MUL NOT AND SWAP1 DUP4 PUSH20 0xFFFFFFFFFFFFFFFFFFFFFFFFFFFFFFFFFFFFFFFF AND MUL OR SWAP1 SSTORE POP POP JUMP JUMPDEST PUSH0 CALLVALUE LT ISZERO PUSH2 0x95C JUMPI PUSH1 0x40 MLOAD PUSH32 0x8C379A000000000000000000000000000000000000000000000000000000000 DUP2 MSTORE PUSH1 0x4 ADD PUSH2 0x953 SWAP1 PUSH2 0xFBD JUMP JUMPDEST PUSH1 0x40 MLOAD DUP1 SWAP2 SUB SWAP1 REVERT JUMPDEST PUSH0 DUP1 PUSH0 SWAP1 SLOAD SWAP1 PUSH2 0x100 EXP SWAP1 DIV PUSH20 0xFFFFFFFFFFFFFFFFFFFFFFFFFFFFFFFFFFFFFFFF AND PUSH20 0xFFFFFFFFFFFFFFFFFFFFFFFFFFFFFFFFFFFFFFFF AND DUP3 PUSH1 0x40 MLOAD PUSH2 0x9A1 SWAP1 PUSH2 0x1008 JUMP JUMPDEST PUSH0 PUSH1 0x40 MLOAD DUP1 DUP4 SUB DUP2 DUP6 DUP8 GAS CALL SWAP3 POP POP POP RETURNDATASIZE DUP1 PUSH0 DUP2 EQ PUSH2 0x9DB JUMPI PUSH1 0x40 MLOAD SWAP2 POP PUSH1 0x1F NOT PUSH1 0x3F RETURNDATASIZE ADD AND DUP3 ADD PUSH1 0x40 MSTORE RETURNDATASIZE DUP3 MSTORE RETURNDATASIZE PUSH0 PUSH1 0x20 DUP5 ADD RETURNDATACOPY PUSH2 0x9E0 JUMP JUMPDEST PUSH1 0x60 SWAP2 POP JUMPDEST POP POP SWAP1 POP DUP1 PUSH2 0xA24 JUMPI PUSH1 0x40 MLOAD PUSH32 0x8C379A000000000000000000000000000000000000000000000000000000000 DUP2 MSTORE PUSH1 0x4 ADD PUSH2 0xA1B SWAP1 PUSH2 0x1066 JUMP JUMPDEST PUSH1 0x40 MLOAD DUP1 SWAP2 SUB SWAP1 REVERT JUMPDEST POP POP JUMP JUMPDEST PUSH0 DUP1 SLOAD SWAP1 PUSH2 0x100 EXP SWAP1 DIV PUSH20 0xFFFFFFFFFFFFFFFFFFFFFFFFFFFFFFFFFFFFFFFF AND DUP2 JUMP JUMPDEST PUSH1 0x1 PUSH0 SWAP1 SLOAD SWAP1 PUSH2 0x100 EXP SWAP1 DIV PUSH20 0xFFFFFFFFFFFFFFFFFFFFFFFFFFFFFFFFFFFFFFFF AND DUP2 JUMP JUMPDEST PUSH1 0x2 SLOAD DUP2 JUMP JUMPDEST PUSH1 0x60 DUP1 PUSH0 DUP1 PUSH0 DUP1 PUSH1 0x1 PUSH0 SWAP1 SLOAD SWAP1 PUSH2 0x100 EXP SWAP1 DIV PUSH20 0xFFFFFFFFFFFFFFFFFFFFFFFFFFFFFFFFFFFFFFFF AND SWAP1 POP DUP1 PUSH20 0xFFFFFFFFFFFFFFFFFFFFFFFFFFFFFFFFFFFFFFFF AND PUSH4 0x6FDDE03 PUSH1 0x40 MLOAD DUP2 PUSH4 0xFFFFFFFF AND PUSH1 0xE0 SHL DUP2 MSTORE PUSH1 0x4 ADD PUSH0 PUSH1 0x40 MLOAD DUP1 DUP4 SUB DUP2 DUP7 GAS STATICCALL ISZERO DUP1 ISZERO PUSH2 0xAE9 JUMPI RETURNDATASIZE PUSH0 DUP1 RETURNDATACOPY RETURNDATASIZE PUSH0 REVERT JUMPDEST POP POP POP POP PUSH1 0x40 MLOAD RETURNDATASIZE PUSH0 DUP3 RETURNDATACOPY RETURNDATASIZE PUSH1 0x1F NOT PUSH1 0x1F DUP3 ADD AND DUP3 ADD DUP1 PUSH1 0x40 MSTORE POP DUP2 ADD SWAP1 PUSH2 0xB11 SWAP2 SWAP1 PUSH2 0x155D JUMP JUMPDEST DUP2 PUSH20 0xFFFFFFFFFFFFFFFFFFFFFFFFFFFFFFFFFFFFFFFF AND PUSH4 0x95D89B41 PUSH1 0x40 MLOAD DUP2 PUSH4 0xFFFFFFFF AND PUSH1 0xE0 SHL DUP2 MSTORE PUSH1 0x4 ADD PUSH0 PUSH1 0x40 MLOAD DUP1 DUP4 SUB DUP2 DUP7 GAS STATICCALL ISZERO DUP1 ISZERO PUSH2 0xB59 JUMPI RETURNDATASIZE PUSH0 DUP1 RETURNDATACOPY RETURNDATASIZE PUSH0 REVERT JUMPDEST POP POP POP POP PUSH1 0x40 MLOAD RETURNDATASIZE PUSH0 DUP3 RETURNDATACOPY RETURNDATASIZE PUSH1 0x1F NOT PUSH1 0x1F DUP3 ADD AND DUP3 ADD DUP1 PUSH1 0x40 MSTORE POP DUP2 ADD SWAP1 PUSH2 0xB81 SWAP2 SWAP1 PUSH2 0x155D JUMP JUMPDEST DUP3 PUSH20 0xFFFFFFFFFFFFFFFFFFFFFFFFFFFFFFFFFFFFFFFF AND PUSH4 0x70A08231 ADDRESS PUSH1 0x40 MLOAD DUP3 PUSH4 0xFFFFFFFF AND PUSH1 0xE0 SHL DUP2 MSTORE PUSH1 0x4 ADD PUSH2 0xBBA SWAP2 SWAP1 PUSH2 0xE8B JUMP JUMPDEST PUSH1 0x20 PUSH1 0x40 MLOAD DUP1 DUP4 SUB DUP2 DUP7 GAS STATICCALL ISZERO DUP1 ISZERO PUSH2 0xBD5 JUMPI RETURNDATASIZE PUSH0 DUP1 RETURNDATACOPY RETURNDATASIZE PUSH0 REVERT JUMPDEST POP POP POP POP PUSH1 0x40 MLOAD RETURNDATASIZE PUSH1 0x1F NOT PUSH1 0x1F DUP3 ADD AND DUP3 ADD DUP1 PUSH1 0x40 MSTORE POP DUP2 ADD SWAP1 PUSH2 0xBF9 SWAP2 SWAP1 PUSH2 0x1126 JUMP JUMPDEST DUP4 PUSH20 0xFFFFFFFFFFFFFFFFFFFFFFFFFFFFFFFFFFFFFFFF AND PUSH4 0x18160DDD PUSH1 0x40 MLOAD DUP2 PUSH4 0xFFFFFFFF AND PUSH1 0xE0 SHL DUP2 MSTORE PUSH1 0x4 ADD PUSH1 0x20 PUSH1 0x40 MLOAD DUP1 DUP4 SUB DUP2 DUP7 GAS STATICCALL ISZERO DUP1 ISZERO PUSH2 0xC42 JUMPI RETURNDATASIZE PUSH0 DUP1 RETURNDATACOPY RETURNDATASIZE PUSH0 REVERT JUMPDEST POP POP POP POP PUSH1 0x40 MLOAD RETURNDATASIZE PUSH1 0x1F NOT PUSH1 0x1F DUP3 ADD AND DUP3 ADD DUP1 PUSH1 0x40 MSTORE POP DUP2 ADD SWAP1 PUSH2 0xC66 SWAP2 SWAP1 PUSH2 0x1126 JUMP JUMPDEST PUSH1 0x2 SLOAD SWAP6 POP SWAP6 POP SWAP6 POP SWAP6 POP SWAP6 POP POP SWAP1 SWAP2 SWAP3 SWAP4 SWAP5 JUMP JUMPDEST PUSH0 DUP1 DUP3 EQ DUP1 PUSH2 0xCA2 JUMPI POP DUP3 DUP3 DUP4 DUP6 PUSH2 0xC93 SWAP2 SWAP1 PUSH2 0x13CB JUMP JUMPDEST SWAP3 POP DUP3 PUSH2 0xCA0 SWAP2 SWAP1 PUSH2 0x15D1 JUMP JUMPDEST EQ JUMPDEST PUSH2 0xCE1 JUMPI PUSH1 0x40 MLOAD PUSH32 0x8C379A000000000000000000000000000000000000000000000000000000000 DUP2 MSTORE PUSH1 0x4 ADD PUSH2 0xCD8 SWAP1 PUSH2 0x164B JUMP JUMPDEST PUSH1 0x40 MLOAD DUP1 SWAP2 SUB SWAP1 REVERT JUMPDEST SWAP3 SWAP2 POP POP JUMP JUMPDEST PUSH0 PUSH1 0x40 MLOAD SWAP1 POP SWAP1 JUMP JUMPDEST PUSH0 DUP1 REVERT JUMPDEST PUSH0 DUP1 REVERT JUMPDEST PUSH0 PUSH20 0xFFFFFFFFFFFFFFFFFFFFFFFFFFFFFFFFFFFFFFFF DUP3 AND SWAP1 POP SWAP2 SWAP1 POP JUMP JUMPDEST PUSH0 PUSH2 0xD21 DUP3 PUSH2 0xCF8 JUMP JUMPDEST SWAP1 POP SWAP2 SWAP1 POP JUMP JUMPDEST PUSH2 0xD31 DUP2 PUSH2 0xD17 JUMP JUMPDEST DUP2 EQ PUSH2 0xD3B JUMPI PUSH0 DUP1 REVERT JUMPDEST POP JUMP JUMPDEST PUSH0 DUP2 CALLDATALOAD SWAP1 POP PUSH2 0xD4C DUP2 PUSH2 0xD28 JUMP JUMPDEST SWAP3 SWAP2 POP POP JUMP JUMPDEST PUSH0 DUP2 SWAP1 POP SWAP2 SWAP1 POP JUMP JUMPDEST PUSH2 0xD64 DUP2 PUSH2 0xD52 JUMP JUMPDEST DUP2 EQ PUSH2 0xD6E JUMPI PUSH0 DUP1 REVERT JUMPDEST POP JUMP JUMPDEST PUSH0 DUP2 CALLDATALOAD SWAP1 POP PUSH2 0xD7F DUP2 PUSH2 0xD5B JUMP JUMPDEST SWAP3 SWAP2 POP POP JUMP JUMPDEST PUSH0 DUP1 PUSH1 0x40 DUP4 DUP6 SUB SLT ISZERO PUSH2 0xD9B JUMPI PUSH2 0xD9A PUSH2 0xCF0 JUMP JUMPDEST JUMPDEST PUSH0 PUSH2 0xDA8 DUP6 DUP3 DUP7 ADD PUSH2 0xD3E JUMP JUMPDEST SWAP3 POP POP PUSH1 0x20 PUSH2 0xDB9 DUP6 DUP3 DUP7 ADD PUSH2 0xD71 JUMP JUMPDEST SWAP2 POP POP SWAP3 POP SWAP3 SWAP1 POP JUMP JUMPDEST PUSH0 PUSH1 0x20 DUP3 DUP5 SUB SLT ISZERO PUSH2 0xDD8 JUMPI PUSH2 0xDD7 PUSH2 0xCF0 JUMP JUMPDEST JUMPDEST PUSH0 PUSH2 0xDE5 DUP5 DUP3 DUP6 ADD PUSH2 0xD71 JUMP JUMPDEST SWAP2 POP POP SWAP3 SWAP2 POP POP JUMP JUMPDEST PUSH2 0xDF7 DUP2 PUSH2 0xD52 JUMP JUMPDEST DUP3 MSTORE POP POP JUMP JUMPDEST PUSH0 PUSH1 0x20 DUP3 ADD SWAP1 POP PUSH2 0xE10 PUSH0 DUP4 ADD DUP5 PUSH2 0xDEE JUMP JUMPDEST SWAP3 SWAP2 POP POP JUMP JUMPDEST PUSH0 PUSH2 0xE20 DUP3 PUSH2 0xCF8 JUMP JUMPDEST SWAP1 POP SWAP2 SWAP1 POP JUMP JUMPDEST PUSH2 0xE30 DUP2 PUSH2 0xE16 JUMP JUMPDEST DUP2 EQ PUSH2 0xE3A JUMPI PUSH0 DUP1 REVERT JUMPDEST POP JUMP JUMPDEST PUSH0 DUP2 CALLDATALOAD SWAP1 POP PUSH2 0xE4B DUP2 PUSH2 0xE27 JUMP JUMPDEST SWAP3 SWAP2 POP POP JUMP JUMPDEST PUSH0 PUSH1 0x20 DUP3 DUP5 SUB SLT ISZERO PUSH2 0xE66 JUMPI PUSH2 0xE65 PUSH2 0xCF0 JUMP JUMPDEST JUMPDEST PUSH0 PUSH2 0xE73 DUP5 DUP3 DUP6 ADD PUSH2 0xE3D JUMP JUMPDEST SWAP2 POP POP SWAP3 SWAP2 POP POP JUMP JUMPDEST PUSH2 0xE85 DUP2 PUSH2 0xE16 JUMP JUMPDEST DUP3 MSTORE POP POP JUMP JUMPDEST PUSH0 PUSH1 0x20 DUP3 ADD SWAP1 POP PUSH2 0xE9E PUSH0 DUP4 ADD DUP5 PUSH2 0xE7C JUMP JUMPDEST SWAP3 SWAP2 POP POP JUMP JUMPDEST PUSH0 DUP2 MLOAD SWAP1 POP SWAP2 SWAP1 POP JUMP JUMPDEST PUSH0 DUP3 DUP3 MSTORE PUSH1 0x20 DUP3 ADD SWAP1 POP SWAP3 SWAP2 POP POP JUMP JUMPDEST DUP3 DUP2 DUP4 MCOPY PUSH0 DUP4 DUP4 ADD MSTORE POP POP POP JUMP JUMPDEST PUSH0 PUSH1 0x1F NOT PUSH1 0x1F DUP4 ADD AND SWAP1 POP SWAP2 SWAP1 POP JUMP JUMPDEST PUSH0 PUSH2 0xEE6 DUP3 PUSH2 0xEA4 JUMP JUMPDEST PUSH2 0xEF0 DUP2 DUP6 PUSH2 0xEAE JUMP JUMPDEST SWAP4 POP PUSH2 0xF00 DUP2 DUP6 PUSH1 0x20 DUP7 ADD PUSH2 0xEBE JUMP JUMPDEST PUSH2 0xF09 DUP2 PUSH2 0xECC JUMP JUMPDEST DUP5 ADD SWAP2 POP POP SWAP3 SWAP2 POP POP JUMP JUMPDEST PUSH0 PUSH1 0xA0 DUP3 ADD SWAP1 POP DUP2 DUP2 SUB PUSH0 DUP4 ADD MSTORE PUSH2 0xF2C DUP2 DUP9 PUSH2 0xEDC JUMP JUMPDEST SWAP1 POP DUP2 DUP2 SUB PUSH1 0x20 DUP4 ADD MSTORE PUSH2 0xF40 DUP2 DUP8 PUSH2 0xEDC JUMP JUMPDEST SWAP1 POP PUSH2 0xF4F PUSH1 0x40 DUP4 ADD DUP7 PUSH2 0xDEE JUMP JUMPDEST PUSH2 0xF5C PUSH1 0x60 DUP4 ADD DUP6 PUSH2 0xDEE JUMP JUMPDEST PUSH2 0xF69 PUSH1 0x80 DUP4 ADD DUP5 PUSH2 0xDEE JUMP JUMPDEST SWAP7 SWAP6 POP POP POP POP POP POP JUMP JUMPDEST PUSH32 0x496E73756666696369656E742066756E64732073656E74000000000000000000 PUSH0 DUP3 ADD MSTORE POP JUMP JUMPDEST PUSH0 PUSH2 0xFA7 PUSH1 0x17 DUP4 PUSH2 0xEAE JUMP JUMPDEST SWAP2 POP PUSH2 0xFB2 DUP3 PUSH2 0xF73 JUMP JUMPDEST PUSH1 0x20 DUP3 ADD SWAP1 POP SWAP2 SWAP1 POP JUMP JUMPDEST PUSH0 PUSH1 0x20 DUP3 ADD SWAP1 POP DUP2 DUP2 SUB PUSH0 DUP4 ADD MSTORE PUSH2 0xFD4 DUP2 PUSH2 0xF9B JUMP JUMPDEST SWAP1 POP SWAP2 SWAP1 POP JUMP JUMPDEST PUSH0 DUP2 SWAP1 POP SWAP3 SWAP2 POP POP JUMP JUMPDEST POP JUMP JUMPDEST PUSH0 PUSH2 0xFF3 PUSH0 DUP4 PUSH2 0xFDB JUMP JUMPDEST SWAP2 POP PUSH2 0xFFE DUP3 PUSH2 0xFE5 JUMP JUMPDEST PUSH0 DUP3 ADD SWAP1 POP SWAP2 SWAP1 POP JUMP JUMPDEST PUSH0 PUSH2 0x1012 DUP3 PUSH2 0xFE8 JUMP JUMPDEST SWAP2 POP DUP2 SWAP1 POP SWAP2 SWAP1 POP JUMP JUMPDEST PUSH32 0x5472616E73666572206661696C65640000000000000000000000000000000000 PUSH0 DUP3 ADD MSTORE POP JUMP JUMPDEST PUSH0 PUSH2 0x1050 PUSH1 0xF DUP4 PUSH2 0xEAE JUMP JUMPDEST SWAP2 POP PUSH2 0x105B DUP3 PUSH2 0x101C JUMP JUMPDEST PUSH1 0x20 DUP3 ADD SWAP1 POP SWAP2 SWAP1 POP JUMP JUMPDEST PUSH0 PUSH1 0x20 DUP3 ADD SWAP1 POP DUP2 DUP2 SUB PUSH0 DUP4 ADD MSTORE PUSH2 0x107D DUP2 PUSH2 0x1044 JUMP JUMPDEST SWAP1 POP SWAP2 SWAP1 POP JUMP JUMPDEST PUSH32 0x4F6E6C79206F776E65722063616E2063616C6C20746869732066756E6374696F PUSH0 DUP3 ADD MSTORE PUSH32 0x6E00000000000000000000000000000000000000000000000000000000000000 PUSH1 0x20 DUP3 ADD MSTORE POP JUMP JUMPDEST PUSH0 PUSH2 0x10DE PUSH1 0x21 DUP4 PUSH2 0xEAE JUMP JUMPDEST SWAP2 POP PUSH2 0x10E9 DUP3 PUSH2 0x1084 JUMP JUMPDEST PUSH1 0x40 DUP3 ADD SWAP1 POP SWAP2 SWAP1 POP JUMP JUMPDEST PUSH0 PUSH1 0x20 DUP3 ADD SWAP1 POP DUP2 DUP2 SUB PUSH0 DUP4 ADD MSTORE PUSH2 0x110B DUP2 PUSH2 0x10D2 JUMP JUMPDEST SWAP1 POP SWAP2 SWAP1 POP JUMP JUMPDEST PUSH0 DUP2 MLOAD SWAP1 POP PUSH2 0x1120 DUP2 PUSH2 0xD5B JUMP JUMPDEST SWAP3 SWAP2 POP POP JUMP JUMPDEST PUSH0 PUSH1 0x20 DUP3 DUP5 SUB SLT ISZERO PUSH2 0x113B JUMPI PUSH2 0x113A PUSH2 0xCF0 JUMP JUMPDEST JUMPDEST PUSH0 PUSH2 0x1148 DUP5 DUP3 DUP6 ADD PUSH2 0x1112 JUMP JUMPDEST SWAP2 POP POP SWAP3 SWAP2 POP POP JUMP JUMPDEST PUSH32 0x4E6F20746F6B656E7320746F2077697468647261770000000000000000000000 PUSH0 DUP3 ADD MSTORE POP JUMP JUMPDEST PUSH0 PUSH2 0x1185 PUSH1 0x15 DUP4 PUSH2 0xEAE JUMP JUMPDEST SWAP2 POP PUSH2 0x1190 DUP3 PUSH2 0x1151 JUMP JUMPDEST PUSH1 0x20 DUP3 ADD SWAP1 POP SWAP2 SWAP1 POP JUMP JUMPDEST PUSH0 PUSH1 0x20 DUP3 ADD SWAP1 POP DUP2 DUP2 SUB PUSH0 DUP4 ADD MSTORE PUSH2 0x11B2 DUP2 PUSH2 0x1179 JUMP JUMPDEST SWAP1 POP SWAP2 SWAP1 POP JUMP JUMPDEST PUSH0 PUSH1 0x40 DUP3 ADD SWAP1 POP PUSH2 0x11CC PUSH0 DUP4 ADD DUP6 PUSH2 0xE7C JUMP JUMPDEST PUSH2 0x11D9 PUSH1 0x20 DUP4 ADD DUP5 PUSH2 0xDEE JUMP JUMPDEST SWAP4 SWAP3 POP POP POP JUMP JUMPDEST PUSH0 DUP2 ISZERO ISZERO SWAP1 POP SWAP2 SWAP1 POP JUMP JUMPDEST PUSH2 0x11F4 DUP2 PUSH2 0x11E0 JUMP JUMPDEST DUP2 EQ PUSH2 0x11FE JUMPI PUSH0 DUP1 REVERT JUMPDEST POP JUMP JUMPDEST PUSH0 DUP2 MLOAD SWAP1 POP PUSH2 0x120F DUP2 PUSH2 0x11EB JUMP JUMPDEST SWAP3 SWAP2 POP POP JUMP JUMPDEST PUSH0 PUSH1 0x20 DUP3 DUP5 SUB SLT ISZERO PUSH2 0x122A JUMPI PUSH2 0x1229 PUSH2 0xCF0 JUMP JUMPDEST JUMPDEST PUSH0 PUSH2 0x1237 DUP5 DUP3 DUP6 ADD PUSH2 0x1201 JUMP JUMPDEST SWAP2 POP POP SWAP3 SWAP2 POP POP JUMP JUMPDEST PUSH32 0x5769746864726177616C206661696C6564000000000000000000000000000000 PUSH0 DUP3 ADD MSTORE POP JUMP JUMPDEST PUSH0 PUSH2 0x1274 PUSH1 0x11 DUP4 PUSH2 0xEAE JUMP JUMPDEST SWAP2 POP PUSH2 0x127F DUP3 PUSH2 0x1240 JUMP JUMPDEST PUSH1 0x20 DUP3 ADD SWAP1 POP SWAP2 SWAP1 POP JUMP JUMPDEST PUSH0 PUSH1 0x20 DUP3 ADD SWAP1 POP DUP2 DUP2 SUB PUSH0 DUP4 ADD MSTORE PUSH2 0x12A1 DUP2 PUSH2 0x1268 JUMP JUMPDEST SWAP1 POP SWAP2 SWAP1 POP JUMP JUMPDEST PUSH32 0x496E73756666696369656E742045746865722050726F766964656420666F7220 PUSH0 DUP3 ADD MSTORE PUSH32 0x74686520746F6B656E2070757263686173650000000000000000000000000000 PUSH1 0x20 DUP3 ADD MSTORE POP JUMP JUMPDEST PUSH0 PUSH2 0x1302 PUSH1 0x32 DUP4 PUSH2 0xEAE JUMP JUMPDEST SWAP2 POP PUSH2 0x130D DUP3 PUSH2 0x12A8 JUMP JUMPDEST PUSH1 0x40 DUP3 ADD SWAP1 POP SWAP2 SWAP1 POP JUMP JUMPDEST PUSH0 PUSH1 0x20 DUP3 ADD SWAP1 POP DUP2 DUP2 SUB PUSH0 DUP4 ADD MSTORE PUSH2 0x132F DUP2 PUSH2 0x12F6 JUMP JUMPDEST SWAP1 POP SWAP2 SWAP1 POP JUMP JUMPDEST PUSH32 0x4E6F7420656E6F75676820746F6B656E206C65667420666F722073616C650000 PUSH0 DUP3 ADD MSTORE POP JUMP JUMPDEST PUSH0 PUSH2 0x136A PUSH1 0x1E DUP4 PUSH2 0xEAE JUMP JUMPDEST SWAP2 POP PUSH2 0x1375 DUP3 PUSH2 0x1336 JUMP JUMPDEST PUSH1 0x20 DUP3 ADD SWAP1 POP SWAP2 SWAP1 POP JUMP JUMPDEST PUSH0 PUSH1 0x20 DUP3 ADD SWAP1 POP DUP2 DUP2 SUB PUSH0 DUP4 ADD MSTORE PUSH2 0x1397 DUP2 PUSH2 0x135E JUMP JUMPDEST SWAP1 POP SWAP2 SWAP1 POP JUMP JUMPDEST PUSH32 0x4E487B7100000000000000000000000000000000000000000000000000000000 PUSH0 MSTORE PUSH1 0x11 PUSH1 0x4 MSTORE PUSH1 0x24 PUSH0 REVERT JUMPDEST PUSH0 PUSH2 0x13D5 DUP3 PUSH2 0xD52 JUMP JUMPDEST SWAP2 POP PUSH2 0x13E0 DUP4 PUSH2 0xD52 JUMP JUMPDEST SWAP3 POP DUP3 DUP3 MUL PUSH2 0x13EE DUP2 PUSH2 0xD52 JUMP JUMPDEST SWAP2 POP DUP3 DUP3 DIV DUP5 EQ DUP4 ISZERO OR PUSH2 0x1405 JUMPI PUSH2 0x1404 PUSH2 0x139E JUMP JUMPDEST JUMPDEST POP SWAP3 SWAP2 POP POP JUMP JUMPDEST PUSH0 PUSH2 0x1416 DUP3 PUSH2 0xD52 JUMP JUMPDEST SWAP2 POP PUSH2 0x1421 DUP4 PUSH2 0xD52 JUMP JUMPDEST SWAP3 POP DUP3 DUP3 ADD SWAP1 POP DUP1 DUP3 GT ISZERO PUSH2 0x1439 JUMPI PUSH2 0x1438 PUSH2 0x139E JUMP JUMPDEST JUMPDEST SWAP3 SWAP2 POP POP JUMP JUMPDEST PUSH0 DUP1 REVERT JUMPDEST PUSH0 DUP1 REVERT JUMPDEST PUSH32 0x4E487B7100000000000000000000000000000000000000000000000000000000 PUSH0 MSTORE PUSH1 0x41 PUSH1 0x4 MSTORE PUSH1 0x24 PUSH0 REVERT JUMPDEST PUSH2 0x147D DUP3 PUSH2 0xECC JUMP JUMPDEST DUP2 ADD DUP2 DUP2 LT PUSH8 0xFFFFFFFFFFFFFFFF DUP3 GT OR ISZERO PUSH2 0x149C JUMPI PUSH2 0x149B PUSH2 0x1447 JUMP JUMPDEST JUMPDEST DUP1 PUSH1 0x40 MSTORE POP POP POP JUMP JUMPDEST PUSH0 PUSH2 0x14AE PUSH2 0xCE7 JUMP JUMPDEST SWAP1 POP PUSH2 0x14BA DUP3 DUP3 PUSH2 0x1474 JUMP JUMPDEST SWAP2 SWAP1 POP JUMP JUMPDEST PUSH0 PUSH8 0xFFFFFFFFFFFFFFFF DUP3 GT ISZERO PUSH2 0x14D9 JUMPI PUSH2 0x14D8 PUSH2 0x1447 JUMP JUMPDEST JUMPDEST PUSH2 0x14E2 DUP3 PUSH2 0xECC JUMP JUMPDEST SWAP1 POP PUSH1 0x20 DUP2 ADD SWAP1 POP SWAP2 SWAP1 POP JUMP JUMPDEST PUSH0 PUSH2 0x1501 PUSH2 0x14FC DUP5 PUSH2 0x14BF JUMP JUMPDEST PUSH2 0x14A5 JUMP JUMPDEST SWAP1 POP DUP3 DUP2 MSTORE PUSH1 0x20 DUP2 ADD DUP5 DUP5 DUP5 ADD GT ISZERO PUSH2 0x151D JUMPI PUSH2 0x151C PUSH2 0x1443 JUMP JUMPDEST JUMPDEST PUSH2 0x1528 DUP5 DUP3 DUP6 PUSH2 0xEBE JUMP JUMPDEST POP SWAP4 SWAP3 POP POP POP JUMP JUMPDEST PUSH0 DUP3 PUSH1 0x1F DUP4 ADD SLT PUSH2 0x1544 JUMPI PUSH2 0x1543 PUSH2 0x143F JUMP JUMPDEST JUMPDEST DUP2 MLOAD PUSH2 0x1554 DUP5 DUP3 PUSH1 0x20 DUP7 ADD PUSH2 0x14EF JUMP JUMPDEST SWAP2 POP POP SWAP3 SWAP2 POP POP JUMP JUMPDEST PUSH0 PUSH1 0x20 DUP3 DUP5 SUB SLT ISZERO PUSH2 0x1572 JUMPI PUSH2 0x1571 PUSH2 0xCF0 JUMP JUMPDEST JUMPDEST PUSH0 DUP3 ADD MLOAD PUSH8 0xFFFFFFFFFFFFFFFF DUP2 GT ISZERO PUSH2 0x158F JUMPI PUSH2 0x158E PUSH2 0xCF4 JUMP JUMPDEST JUMPDEST PUSH2 0x159B DUP5 DUP3 DUP6 ADD PUSH2 0x1530 JUMP JUMPDEST SWAP2 POP POP SWAP3 SWAP2 POP POP JUMP JUMPDEST PUSH32 0x4E487B7100000000000000000000000000000000000000000000000000000000 PUSH0 MSTORE PUSH1 0x12 PUSH1 0x4 MSTORE PUSH1 0x24 PUSH0 REVERT JUMPDEST PUSH0 PUSH2 0x15DB DUP3 PUSH2 0xD52 JUMP JUMPDEST SWAP2 POP PUSH2 0x15E6 DUP4 PUSH2 0xD52 JUMP JUMPDEST SWAP3 POP DUP3 PUSH2 0x15F6 JUMPI PUSH2 0x15F5 PUSH2 0x15A4 JUMP JUMPDEST JUMPDEST DUP3 DUP3 DIV SWAP1 POP SWAP3 SWAP2 POP POP JUMP JUMPDEST PUSH32 0x4D756C7469706C69636174696F6E206F766572666C6F77000000000000000000 PUSH0 DUP3 ADD MSTORE POP JUMP JUMPDEST PUSH0 PUSH2 0x1635 PUSH1 0x17 DUP4 PUSH2 0xEAE JUMP JUMPDEST SWAP2 POP PUSH2 0x1640 DUP3 PUSH2 0x1601 JUMP JUMPDEST PUSH1 0x20 DUP3 ADD SWAP1 POP SWAP2 SWAP1 POP JUMP JUMPDEST PUSH0 PUSH1 0x20 DUP3 ADD SWAP1 POP DUP2 DUP2 SUB PUSH0 DUP4 ADD MSTORE PUSH2 0x1662 DUP2 PUSH2 0x1629 JUMP JUMPDEST SWAP1 POP SWAP2 SWAP1 POP JUMP INVALID LOG2 PUSH5 0x6970667358 0x22 SLT KECCAK256 JUMPI 0xF8 PUSH9 0xCF5B003D7DAD7117D7 PUSH14 0xD54C61F2BD8C713EFF4FE01481A8 SELFBALANCE 0x22 LOG0 CODESIZE PREVRANDAO PUSH5 0x736F6C6343 STOP ADDMOD BYTE STOP CALLER "
				},
				"gasEstimates": {
					"creation": {
						"codeDepositCost": "1158200",
						"executionCost": "25463",
						"totalCost": "1183663"
					},
					"external": {
						"buyTokens(uint256)": "infinite",
						"getTokenDetails()": "infinite",
						"owner()": "2549",
						"soldTokens()": "2492",
						"tokenAddress()": "2574",
						"tokenSalePrice()": "2513",
						"transferEther(address,uint256)": "infinite",
						"transferToOwner(uint256)": "infinite",
						"updateToken(address)": "26881",
						"updateTokenPrice(uint256)": "24770",
						"withdrawAllTokens()": "infinite"
					},
					"internal": {
						"multiplyToken(uint256,uint256)": "infinite"
					}
				},
				"methodIdentifiers": {
					"buyTokens(uint256)": "3610724e",
					"getTokenDetails()": "ff332ab7",
					"owner()": "8da5cb5b",
					"soldTokens()": "5ed9ebfc",
					"tokenAddress()": "9d76ea58",
					"tokenSalePrice()": "e86790eb",
					"transferEther(address,uint256)": "05b1137b",
					"transferToOwner(uint256)": "87c1ed12",
					"updateToken(address)": "7ad3def2",
					"updateTokenPrice(uint256)": "676c0d77",
					"withdrawAllTokens()": "280da6fa"
				}
			},
			"storageLayout": {
				"storage": [
					{
						"astId": 64,
						"contract": "token ico project/TokenICO.sol:TokenICO",
						"label": "owner",
						"offset": 0,
						"slot": "0",
						"type": "t_address"
					},
					{
						"astId": 66,
						"contract": "token ico project/TokenICO.sol:TokenICO",
						"label": "tokenAddress",
						"offset": 0,
						"slot": "1",
						"type": "t_address"
					},
					{
						"astId": 68,
						"contract": "token ico project/TokenICO.sol:TokenICO",
						"label": "tokenSalePrice",
						"offset": 0,
						"slot": "2",
						"type": "t_uint256"
					},
					{
						"astId": 70,
						"contract": "token ico project/TokenICO.sol:TokenICO",
						"label": "soldTokens",
						"offset": 0,
						"slot": "3",
						"type": "t_uint256"
					}
				],
				"types": {
					"t_address": {
						"encoding": "inplace",
						"label": "address",
						"numberOfBytes": "20"
					},
					"t_uint256": {
						"encoding": "inplace",
						"label": "uint256",
						"numberOfBytes": "32"
					}
				}
			},
			"userdoc": {
				"kind": "user",
				"methods": {},
				"version": 1
			}
		}
	}
}